:1068000000180020596C0000A16C0000A16C000071
:106810000000000000000000000000000000000078
:10682000000000000000000000000000A16C00005B
:106830000000000000000000A16C000065C800001E
:10684000A16C0000A16C0000A16C0000A16C000014
:10685000A16C0000A16C0000A16C0000A16C000004
:10686000A16C0000A16C0000A16C0000A16C0000F4
:1068700009C70000A16C0000A16C0000A16C000021
:10688000A16C0000A16C0000A16C0000A16C0000D4
:10689000A16C0000A16C0000A16C0000A16C0000C4
:1068A000A16C0000A16C0000A16C0000A16C0000B4
:1068B000A16C0000A16C0000A16C0000A16C0000A4
:106C0000FFFFFFFFFFFFFFFFFFFFFFFFFEFFFFFF95
:106C100010B5064C2378002B07D1054B002B02D072
:106C2000044800E000BF0123237010BD740400205D
:106C300000000000F4E40000044B10B5002B03D06A
:106C40000349044800E000BF10BDC046000000003A
:106C500078040020F4E4000072B603F033FA62B660
:106C60000A490B4A0B4B9B1A03DD043BC858D05012
:106C7000FBDC0949094A521A03DD00208850043A16
:106C8000FCDA04F061FB03F057FB00001CE5000098
:106C9000000400207404002074040020A4080020D4
:106CA00000B5C04600BDC046002243088B4274D3E5
:106CB00003098B425FD3030A8B4244D3030B8B42FD
:106CC00028D3030C8B420DD3FF22090212BA030C06
:106CD0008B4202D31212090265D0030B8B4219D3E7
:106CE00000E0090AC30B8B4201D3CB03C01A524107
:106CF000830B8B4201D38B03C01A5241430B8B424F
:106D000001D34B03C01A5241030B8B4201D30B0337
:106D1000C01A5241C30A8B4201D3CB02C01A52415E
:106D2000830A8B4201D38B02C01A5241430A8B4221
:106D300001D34B02C01A5241030A8B4201D30B020A
:106D4000C01A5241CDD2C3098B4201D3CB01C01A24
:106D5000524183098B4201D38B01C01A524143092E
:106D60008B4201D34B01C01A524103098B4201D31C
:106D70000B01C01A5241C3088B4201D3CB00C01A89
:106D8000524183088B4201D38B00C01A5241430801
:106D90008B4201D34B00C01A5241411A00D2014626
:106DA000524110467047FFE701B5002000F0F0F8AF
:106DB00002BDC0460029F7D076E7704703460B4373
:106DC0007FD4002243088B4274D303098B425FD3E4
:106DD000030A8B4244D3030B8B4228D3030C8B4210
:106DE0000DD3FF22090212BA030C8B4202D31212F6
:106DF000090265D0030B8B4219D300E0090AC30BCB
:106E00008B4201D3CB03C01A5241830B8B4201D377
:106E10008B03C01A5241430B8B4201D34B03C01A60
:106E20005241030B8B4201D30B03C01A5241C30AD8
:106E30008B4201D3CB02C01A5241830A8B4201D349
:106E40008B02C01A5241430A8B4201D34B02C01A33
:106E50005241030A8B4201D30B02C01A5241CDD2D8
:106E6000C3098B4201D3CB01C01A524183098B4223
:106E700001D38B01C01A524143098B4201D34B010C
:106E8000C01A524103098B4201D30B01C01A52416F
:106E9000C3088B4201D3CB00C01A524183088B42F6
:106EA00001D38B00C01A524143088B4201D34B00DF
:106EB000C01A5241411A00D2014652411046704751
:106EC0005DE0CA0F00D04942031000D34042534056
:106ED00000229C4603098B422DD3030A8B4212D316
:106EE000FC22890112BA030A8B420CD38901921148
:106EF0008B4208D3890192118B4204D389013AD085
:106F0000921100E08909C3098B4201D3CB01C01A59
:106F1000524183098B4201D38B01C01A524143096C
:106F20008B4201D34B01C01A524103098B4201D35A
:106F30000B01C01A5241C3088B4201D3CB00C01AC7
:106F4000524183088B4201D38B00C01A5241D9D2DF
:106F500043088B4201D34B00C01A5241411A00D260
:106F60000146634652415B10104601D34042002B5C
:106F700000D54942704763465B1000D3404201B5DB
:106F8000002000F005F802BD0029F8D016E7704790
:106F90007047C0468446101C62468C46191C6346E6
:106FA00000E0C0461FB501F0C1FD002801D400215A
:106FB000C8421FBD10B501F019FD4042013010BD9F
:106FC00010B501F0B3FD002801DB002010BD012049
:106FD00010BDC04610B501F0A9FD002801DD00205C
:106FE00010BD012010BDC04610B501F03BFD0028CA
:106FF00001DC002010BD012010BDC04610B501F01D
:1070000031FD002801DA002010BD012010BDC0466E
:107010008446081C6146FFE71FB500F0D9FA002836
:1070200001D40021C8421FBD10B500F05BFA4042F8
:10703000013010BD10B500F0CBFA002801DB0020B4
:1070400010BD012010BDC04610B500F0C1FA0028E7
:1070500001DD002010BD012010BDC04610B500F0BC
:1070600069FA002801DC002010BD012010BDC046D7
:1070700010B500F05FFA002801DA002010BD0120F1
:1070800010BDC046002B11D1002A0FD1002900D11C
:10709000002802D00021C943081C07B4024802A1FD
:1070A0004018029003BDC046E9FEFFFF03B46846E6
:1070B00001B5029800F042F8019B9E4602B00CBC5C
:1070C0007047C04670B500220C4B04000D00FFF75E
:1070D00095FF002804D12000290002F065FB70BD57
:1070E000064B00222000290001F0FAFF02F05CFBB1
:1070F00080231B069C466044F1E7C0460000E04147
:1071000070B500220B4B0D00040001F077FDFFF776
:10711000D9FF060002F0B8FB0022074B01F06EFD1C
:1071200002000B002000290001F0DAFFFFF7CAFF80
:10713000310070BD0000F03D0000F041F0B54F4659
:107140004646D646C0B5040082B00D00914698462A
:107150008B422FD82CD04146484602F0BBFC290078
:107160000600200002F0B6FC331A9C46203B9A46EB
:1071700000D576E04B46524693401F004B46624690
:1071800093401E00AF4228D825D05346A41BBD41D2
:10719000002B00DA7BE00022002300920193012300
:1071A000524693400193012362469340009318E0B6
:1071B0008242D0D900220023009201930A9B002B27
:1071C00001D01C605D600098019902B01CBC904623
:1071D0009946A246F0BDA342D7D9002200230092CF
:1071E00001936346002BE9D0FB079846414672089D
:1071F0000A437B0866460EE0AB4201D1A2420CD89E
:10720000A41A9D41012024196D410021013E24183A
:107210004D41002E06D0AB42EED9013E24196D41FE
:10722000002EF8D100980199534600196941002BAE
:1072300023DB2B005246D3402A006446E2401C0068
:1072400053461500002B2DDB26005746BE40330069
:1072500026006746BE403200801A99410090019195
:10726000ACE7624620239B1A4A46DA406146130087
:1072700042468A4017001F4380E7624620239B1A3C
:107280002A0066469A402300F3401343D4E762463F
:10729000202300219B1A0022009101920122DA4052
:1072A000019280E72023624626009B1ADE402F00D1
:1072B000B0466646B74046463B003343C8E7C04643
:1072C000F8B557464E464546DE464402E0B5460010
:1072D0008846640A360EC70F002E63D0FF2E24D0D6
:1072E0008023E400DB041C43002399469B467F3E39
:1072F000434642465D02D20F5B006D0A1B0E90466C
:10730000924665D0FF2B55D080220021ED00D2049B
:107310007F3B1543F61A43464A467B400F2A00D965
:107320008DE06D48920082589746002C54D1082376
:107330009946063BFF269B46DAE70025534602297D
:107340001BD0032900D1BFE0012928D030007F30B5
:10735000002820DD6A0704D00F222A40042A00D02A
:1073600004352A0103D530005C4A80301540FE28E0
:1073700003DCAC01640AC2B201E0FF220024640213
:10738000D205600ADB07104318433CBC904699467F
:10739000A246AB46F8BD0122101A1B287CDD002254
:1073A0000024ECE7002C1DD104239946033B002662
:1073B0009B469DE7FF3E002D20D1022143464A46D1
:1073C0007B400A430F2AD8D84548920082589746F6
:1073D000002D19D10121F1E70C239946093BFF2625
:1073E0009B4685E7200002F057FB7626431F9C4012
:1073F00000237642361A99469B4679E74A4603238C
:107400001A439146032186E7280002F045FB431FFB
:1074100036189D40763600217DE780240023E40362
:10742000FF22ACE700258023DB031C4228D01D424D
:1074300026D12B435C02640A4346FF229FE7620188
:107440006C01A24224D21B210025013E012710001D
:107450006D005200002801DB944201D8121B3D430D
:1074600001390029F3D11400621E944125436DE7D0
:10747000BA46594625005346022900D061E77CE709
:107480008023DB031C436402640A3B00FF2276E78F
:10749000121B1A210125D9E79E362A00B5402C007F
:1074A000C240651EAC411443620704D00F22224043
:1074B000042A00D00434620103D4A401640A002227
:1074C0005DE7012200245AE78024E4032C43640290
:1074D000640AFF2253E7C046E8DB0000FFFFFFF726
:1074E00028DC000070B542004E024C0045026D0AD7
:1074F000120EC30F760A240EC90FFF2A0FD0FF2CDD
:1075000011D00120A24200D070BDB542FCD18B4207
:107510000DD0002AF8D12800451EA841F4E701202B
:10752000002DF1D1EBE70120002EEDD1E9E700209D
:10753000EAE7C04670B54A004E02450244006D0AB3
:10754000240EC30F760A120EC90FFF2C15D0FF2A86
:107550000ED0002C15D1002A01D1002E1CD0002DF8
:1075600014D08B4227D00220013B1840013870BD57
:10757000002EEED002204042F9E7002DFAD1FF2A7A
:107580000ED0002A0ED1002EEDD00BE001230139E0
:10759000994308000130EAE70020002DE7D0E2E738
:1075A000002EE7D18B42DED1944205DD0221581E28
:1075B00008400138DBE70024A24204DCB542D2D8FF
:1075C0000020B542D3D2581E012398430130CEE7A4
:1075D00030B5420044024D02C30F4800640A120E47
:1075E0006D0A000EC90FFF2A12D0FF280CD0002A06
:1075F00012D1002819D1002D17D1002C2BD0022038
:10760000013B1840013826E0002DF0D0022022E096
:10761000002CFBD1FF281FD000281FD1002D1DD129
:107620000220013B1840013815E0002C0ED08B429F
:10763000E5D10022904204DCAC42E0D80020AC420C
:1076400009D2581E01239843013004E00123013977
:1076500099430800013030BD002DD7D18B42CED1E7
:107660008242E7DD0221581E08400138F3E7C04698
:10767000F0B54E4657464546DE46E0B543025B0A46
:10768000450083B00F1C99462D0EC60F002D57D014
:10769000FF2D24D08020DB00C00418430023814646
:1076A0009A469B467F3D7C027A00FB0F640A120ECD
:1076B000984623D0FF2A4BD0E30080240020E40426
:1076C0007F3A1C43AD186B1C4746019353467740E5
:1076D0003A000F2B48D87D499B00CB589F46002B82
:1076E00000D085E008339A46063B9B467C027A0030
:1076F000FB0FFF25640A120E9846DBD1002C00D048
:1077000090E0524601231A4392460120DBE74C46A3
:1077100058461700022824D0032800D1CFE00022C9
:10772000002301284DD15802D205400AFF0710431B
:10773000384303B03CBC90469946A246AB46F0BDE8
:10774000002B5BD104239A46033B00259B46AAE706
:10775000FF35002C60D1524602231A439246022084
:10776000B1E7FF220023DEE74B461B0C9C464B464D
:107770002604360C180461463300220C6446000CC3
:1077800043434E435043544380191A0C12189642F7
:1077900003D9802149028C4664441B041B0C10044D
:1077A000C01883015E1EB341800E1843130C1B19D1
:1077B0009B0103431C00230179D5012362081C406F
:1077C0001443019A7F32002A4DDD630704D00F2352
:1077D0002340042B00D00434230103D53C4B019AF1
:1077E0001C408032FE2ABCDCA3015B0AD2B29AE7BD
:1077F0000C239A46093BFF259B4654E7180002F0EC
:107800004BF94A46431F76259A4000236D42914624
:107810002D1A9A469B4646E7524603231A43924640
:10782000032050E7200002F037F9431F2D1A9C4037
:10783000763D002047E780230027DB03FF2272E725
:10784000424666E74C463200584662E780234A4685
:10785000DB031A4222D01C4220D123435B025B0A85
:107860004746FF225FE701239A1A1B2A21DC2300E7
:107870000199D3409E318C401A0023005C1EA34125
:1078800013435A0704D00F221A40042A00D00433AD
:107890005A0111D49B015B0A002244E780234A4627
:1078A000DB0313435B025B0A3700FF223BE70195D2
:1078B00087E70022002336E70122002333E78023F5
:1078C000DB0323435B025B0AFF222CE768DC00003A
:1078D000FFFFFFF7F8B54746CE464400C20F80B51C
:1078E00047024802400A8446664648007F0A240E42
:1078F000F60025009046FB00000EC90FB146FF2898
:1079000000D185E001267140261A914257D0002E01
:1079100043DD002800D07FE04946002900D1AAE0DD
:10792000013E002E00D0F7E05B1A5A0100D48BE034
:107930009B019C09200002F0AFF805388440854285
:1079400000DDD3E0451B230020200135EB40451B23
:10795000AC40621E94412343072400251C400122B1
:1079600041460A40002C04D00F211940042900D0C0
:107970000433590100D480E00135ECB2FF2D00D072
:10798000A3E0FF2400235B02E405580AD20720434A
:1079900010430CBC90469946F8BD002E74D1601C73
:1079A000C0B2012800DCA7E04A469C1A620100D55B
:1079B000B6E0002CBED1002200240023E3E7002E15
:1079C00000DC85E0002846D0FF2C49D080224846C4
:1079D000D2041043814601221B2E09DC20204C4694
:1079E000801B84404A462000F240441EA0410243CE
:1079F0009B185A0128D50135FF2D00D1A8E001229E
:107A0000072494491A405B080B4013431C40A6E727
:107A1000002E00D078E775E7FF2C54D0802249462D
:107A2000D2041143894601221B2E09DC202148463D
:107A3000891B88404A460100F240481E81410A43A2
:107A40009B1A5A0100D573E7012241460A405907A3
:107A500000D089E711E04846002858D1FF2C0CD10E
:107A6000DB08002B00D18CE78020C00303435B02BE
:107A70005B0AFF2487E7FF2C25D0DB08FF2DF0D021
:107A80005B025B0AECB27EE7002C4DD0FF2818D0D9
:107A90008024E404724223431B2A00DDC4E01C005E
:107AA0002025D440AA1A93405A1E934123434A46A4
:107AB0000500D31A884638E7721CF8D0F243FF2835
:107AC000EAD10A004B46FF25D7E79B015B0A5AE73C
:107AD000002E41D1651CE9B2012945DDFF2D00D101
:107AE0004FE707244B445B081C4038E707225A4BFA
:107AF0002D1A2340144032E7002C1DD1002B7AD1DF
:107B00004B46002B00D191E00A000025B5E7013E6D
:107B1000002E19D14B446CE7FF2C84D1FF25ACE734
:107B20004A468846D41A05E7002BC5D10A00FF282B
:107B3000C8D005004B46A0E7002B49D14B46002B8F
:107B400077D00A00FF2598E7FF2C00D043E787E7AE
:107B50000A00FF24002316E7002C15D1002B57D173
:107B6000FF28E6D14B467BE7002C20D1002B57D0D5
:107B70004946002953D04B445A0168D50724364A58
:107B80001C4001251340EAE6FF28EBD08022D204F6
:107B9000764213431B2E53DC2025AD1B1A00AB404D
:107BA000F2405C1EA34113434B44050021E7002B28
:107BB000D8D04946002900D152E78021C9030F429D
:107BC00000D14DE76046084200D049E74B4647E701
:107BD0004846FF25002800D14FE78022D2031742F4
:107BE00004D06046104201D14B46884601224146EE
:107BF000FF250A4041E7484600281FD01A1A5001C5
:107C000020D54A460724D31A1C4088460025A6E6FC
:107C1000741CC9D0F643FF28BCD14B4620E79946D7
:107C20004B460025DB082BE7012340E70022002319
:107C3000A9E680230022DB03FF24A4E600251CE73D
:107C40000123B1E7002AF1D013000025FCE600254E
:107C5000FAE6C046FFFFFF7DFFFFFFFB4102420047
:107C6000C30F490A120E00207E2A0DD99D2A0CD876
:107C7000802000040143952A0ADC9620821AD14014
:107C80004842002B00D108007047034A9818FBE7D0
:107C9000963A9140F4E7C046FFFFFF7F70B5002899
:107CA0003DD0C317C5185D40C40F280001F0F4FE95
:107CB0009E22121A962A07DCD2B2082833DD083831
:107CC00085406802400A23E0992A0BDD052329003C
:107CD0001B1AD94003001B339D402B005D1EAB4196
:107CE00019430D00052801DD431F9D402B000F495E
:107CF0000B406E0709D00F263540042D05D0043304
:107D00005D0102D59F220B40121A9B01580AD2B284
:107D10004002D205400AE4071043204370BD00240E
:107D200000220020F4E76802400AF1E7FFFFFFFBB2
:107D300070B5041E34D001F0AFFE9E22121A962AAE
:107D400007DCD2B208282EDD083884406002400AE1
:107D500021E0992A09DD030021001B3399404B1EC5
:107D6000994105231B1ADC400C43052801DD431F04
:107D70009C4023000D490B40650709D00F252C407E
:107D8000042C05D004335C0102D59F220B40121A4B
:107D90009B01580AD2B24002D205400A104370BD7E
:107DA00000220020F7E76002400AF4E7FFFFFFFB34
:107DB000F0B54F464646D6460C000903C0B5490A01
:107DC000470F5E0039431F03DB0F9C4665007B0AAB
:107DD000570F1F436D0DE40F760DA146C000B84646
:107DE000D200AB1B64457BD0002B5FDD002E00D0A2
:107DF000A4E03E00164300D112E15E1E002E00D02A
:107E00009EE1871A4346B84280410125C91A404283
:107E1000091A0B0200D431E149024E0A002E00D1AA
:107E20006EE1300001F038FE0300083B1F2B00DD3F
:107E300061E120223900D21A9E40D1409F400E437A
:107E40009D4200DD51E15D1B6B1C1F2B00DD7CE1C1
:107E50002021C91A3D0030008F408840DD40791E46
:107E60008F41310007222843D940002507433A407B
:107E7000002A09D00F233B40042B05D03B1DBB42F9
:107E8000BF417F42C9191F000B0200D426E26A1CC1
:107E9000C64B55056D0D9A4200D106E1C44AFF0854
:107EA0000A40530752023B43120B8EE0002B00D0D6
:107EB000B8E06B1C5B055B0D012B00DC30E1871A21
:107EC0004346B842B641CB1A76429E1B330200D5D8
:107ED0004CE13B003343A1D100220024002570E097
:107EE000002B00DCE5E0002E00D183E0AF4EB54270
:107EF00060D0802636043743B846382B00DC3EE19C
:107F0000434613431F007A1E97413F188742804122
:107F1000404209180B0200D4B0E0A44B01359D4249
:107F200000D1C3E0A24A7B080A4001210F401F4351
:107F30005108D30707221F433A4099E79B4EB542A9
:107F400038D0802636043743B846382B00DDDCE0D5
:107F50001F2B00DC30E11E004746203EF740BC46A8
:107F6000202B04D04026F31A46469E403243170089
:107F700063467A1E97411F43CCE0002B00D104E2F8
:107F80004346134300D159E14B07C00818438023EF
:107F9000C9081B03194208D04546ED081D4204D10B
:107FA0004346D008590708432900420FC9007F4DB6
:107FB0001143C0004B07CA087C49C00803438D42E7
:107FC00068D012036D05120B6D0D0021120318000D
:107FD000130B0A0D12051A43764B2D0513402B4344
:107FE0005B00E4075B08234319001CBC90469946DC
:107FF000A246F0BD3E00164312D05E1E002E00D0F9
:1080000000E1871887428041414440420918012518
:108010000B0233D5022585E7644633004146100044
:108020001D00C7E7002D00D0DAE00C000443F3D0B8
:108030005C1C00D19FE15D4CA64200D12FE1DB43E7
:10804000382B00DD66E11F2B00DD83E120240500D5
:10805000E41A0F00DD40D940A0404346A7405B1A18
:10806000441EA04198462F433843171ABA42924102
:1080700043465242991A64463500CAE607223A40FE
:10808000002A00D0F6E64B07CA084849FF083B43E0
:108090008D4296D11900114300D19EE18021090340
:1080A0000A431203120B414D8FE7150000220023F3
:1080B0008BE7002B00D0C7E06B1C5F057F0D012F05
:1080C00000DCF1E0394DAB4200D1B9E085180A007F
:1080D000854289414244494251180722CF076D0821
:1080E0002F4349083A401D00C2E607223049ED1AE5
:1080F00031403A40BCE63E002838864000279FE6E3
:10810000380001F0C9FC20308EE6434613431F00BF
:108110007A1E9741C71BB84280414042091A78E64F
:108120000E003B0006431343002D61D1002E00D00A
:10813000F4E0002B00D11BE164463900100039E760
:108140001A4FBB427AD03300FFE630001F3DE840B3
:10815000202B03D04021CB1A9E4037437B1E9F41EA
:10816000072207433A400021002589E7171A4346B2
:10817000BA42B641591A76428E1B64464EE61F2B10
:1081800000DDADE020264746F61AB740B946170095
:10819000B246DF404E463E4337005646B240561E7A
:1081A000B24117434246DA408918AEE6FF070000A5
:1081B000FFFF7FFFFFFF0F8020264746F61AB740DC
:1081C000B9461700B246DF404E463E43370056469A
:1081D000B240561EB24117434246DA40891A99E727
:1081E0007F4CA6425BD0802424045B42214327E7D6
:1081F000002E0CD1002B00D1CBE0644639001000DA
:10820000774DD7E6764FBB4218D0330075E6002B8A
:1082100014D04B07C00818438023C9081B03194218
:1082200007D0FC081C4204D17907D0080843E14676
:1082300021004C46420FC9001143C000684DB9E609
:108240001D0000220023C0E6002D5BD10D00054378
:1082500000D1E2E65D1C00D1B0E0614DAE421FD01E
:10826000DB43382B71DC1F2B00DD96E020250F004F
:10827000ED1AAF40B9460700AA46DF404D463D43E0
:108280002F005546A840D940451EA84188440743C1
:10829000BF18974292415142414435003AE6644644
:1082A00035004146100085E60B000343002D00D049
:1082B00063E6002BF5D04346134300D17AE68718D6
:1082C0008742804107224144404209183A400B024C
:1082D00000D4D5E6434B01351940C9E5380069E6BD
:1082E0001E004746203EF740BC46202B04D04026C7
:1082F000F31A46469E403243170063467A1E974162
:108300001F4302E6364DAE42CAD080252D045B42A3
:108310002943A6E70843411E8841A6E6002B00D169
:1083200048E6871A4346B842B641CB1A76429E1BAE
:1083300033024BD5171A4346BA429241591A524258
:10834000891A072264463A4092E501430F00791EDC
:108350008F419DE71C000F00203CE740202B03D0FD
:108360004024E31A99400843411E884138437CE683
:108370000022002425E6171A4346BA429241591AB0
:108380005242891A6446350043E541461000144DB7
:1083900010E680220024120380E61D000F00203D1D
:1083A000EF40BC46202B03D04025EB1A99400843F0
:1083B00007006346781E87411F4369E78718974285
:1083C0009B4141445B42C9183500A3E53B00334360
:1083D000CED0072231003A4052E600231A00F4E5DD
:1083E000FF070000FFFF7FFFF0B55746DE464E4611
:1083F0004546E0B5834607000E03480085B0924627
:108400001C00360B400DCD0F002800D19DE0954B90
:10841000984239D08023F6001B041E43924A7B0FFA
:108420003343994694460300634400930023002697
:10843000FF00029323031B0B98466300E40F524690
:108440005B0D019400D1B3E086498B4200D19EE0E0
:108450004246D100802212040A435146490F11437B
:108460008B46814952468C4600996344CB1A0021C1
:10847000D20000932B0063409A460F2E00D905E1ED
:108480007A4BB6009B599F465B463343994600D0D2
:10849000B8E002230826002700900293CAE7CB46E3
:1084A0003A0002990195019B9A46022927D0032997
:1084B00000D180E2012944D06D49009B8C46634481
:1084C0001C00002C38DD530700D013E2D2085B46B5
:1084D000DB0109D55946674B19408B468021C900FD
:1084E0008C46009B63441C00634B9C4207DC5B464C
:1084F00064055F075B0217431B0B620D02E000235C
:108500000027584A00211B031C0B0B0D1B0523439E
:1085100014055A4A380013401C4353466400DB07D5
:1085200064081C43210005B03CBC90469946A24615
:10853000AB46F0BD0122524201231B1B382B00DC4D
:10854000ADE1002200230027DCE75B463343994678
:108550005ED0002E00D18AE1300001F09DFA0300C8
:108560000B3B1C2B00DD7BE11D22D31A5A46010078
:10857000DA4008398E4013005F46334399468F40F6
:108580003F4B00261B1A00930023029352E74146FB
:1085900053460B433B499B468C46009B63440093E8
:1085A0005B46002B3BD1022300221E43022161E7E0
:1085B000434613439B4637D04346002B00D162E12C
:1085C000404601F069FA03000B3B1C2B00DD53E130
:1085D00002004146083A914088461D21CB1A514677
:1085E000D9400B0041460B439B46534693401A002B
:1085F000009B25499C46604403008C4663440093DD
:10860000002137E70323B14600900C26029311E7BF
:108610000023009301330426002702930AE7032373
:10862000C3461E43032125E701331E4300220121D7
:1086300020E700239A46802300271B03094A61E7AD
:10864000802349461B03194200D1E2E059461942F2
:1086500000D0DEE00B431B0317001B0BA246014AB0
:1086600050E7C046FF07000001FCFFFFA8DC000048
:10867000FF030000FFFFFFFEFE070000FFFF0F806B
:108680000DFCFFFF01F8FFFFF3030000D94500D9FF
:10869000CBE000D1C6E03C0048460027009B013BF0
:1086A00000935B46160E1B021E43130298463304CA
:1086B0001B0C9946310C0191FEF77CFB4A46424364
:1086C0000B04210C050019438A4207D98919013D81
:1086D0008E4203D88A4201D9851E8919881A0199C8
:1086E000FEF768FB09048C464A462104644642436F
:1086F000090C030021438A4204D98919013B8E42A7
:1087000000D8F1E02D041D43AB464346891A42468A
:10871000280C12041D0C5B46140C22001B041B0CBD
:108720005A4303946B434443029568431B19150C49
:10873000EB189C4203D980246402A44660441C0CBC
:1087400015041B042D0C20185D19814277D373D0BA
:108750000C1AA24A7D1BAF42BF419446009B7F4248
:108760006344E01B1C00864200D1DBE00199FEF768
:1087700021FB4A4642430B04290C070019438A4255
:1087800007D98919013F8E4203D88A4201D9871E31
:108790008919881A0199FEF70DFB09044A46894692
:1087A00029044D464243090C030029438A4207D954
:1087B0008919013B8E4203D88A4201D9831E891947
:1087C0003F04891A3A00039F1A43380013041B0C14
:1087D000584381460298150C6F434343454348462E
:1087E000000C8446DB1963449F4203D98020400279
:1087F0008446654448461F0C00041B04000C7D1988
:108800001818A94200D284E000D17FE001231A4366
:1088100057E680234A461B0313431B031B0BAA4640
:108820006F4A6FE6BA4200D935E74B46DC07580875
:108830007B081C43FF0734E70024AF4289D247443A
:108840004745A4415B466442A4196418013BA64213
:108850001ED2A0426DD800D1B6E0241A9B4678E71C
:1088600003005A46283B9A400027914688E658461E
:1088700001F012F9203072E603005246283B9A407C
:1088800093460022B4E6504601F006F920309AE6FD
:10889000A642E2D1B845DCD9341A9B4659E71F2BD2
:1088A00065DC504C0099A4465C46614408008C404D
:1088B00011008240D940501E82410C4314435A4655
:1088C000DA401300620709D00F222240042A05D0A3
:1088D0002200141D9442894149425B181A0262D554
:1088E0000122002300270DE68A4200D80AE7831EF2
:1088F000891907E70F231340042B00D1E6E5171D64
:108900009742924153429B44FA08E0E5002800D187
:10891000D7E57118531EB14227D3A94215D358D0B9
:108920001A0073E7002B00DC04E6012300229B44BD
:10893000CDE502234744474589415B429C46494275
:1089400089190C19E344241A03E743465F0047459D
:108950009B41B8465B429E19023A8919A94200D050
:1089600054E7404500D051E7ABE51A00F6E71F2178
:108970005F4649420C1BE740202B07D01A49009B59
:108980008C46634418005B4683401A43501E824164
:108990003A4307270023174009D00F210023114035
:1089A0001400042995D122005F075B021B0BD2083B
:1089B00017430022A6E5802359461B030B431B03E4
:1089C00017001B0B064A9DE5BD42B2D89B4600240A
:1089D000BFE68045B9D31A00C3E7C046FF030000D5
:1089E000FF0700001E0400003E040000F0B54F46E3
:1089F0004646D6468446C0B58046194E18030F0336
:108A00004D00000B5C0082463F0B6D0DC90F914677
:108A1000640DDB0F0120B5420AD0B44203D0A54259
:108A200001D157450CD01CBC90469946A246F0BDDA
:108A300066463E43F7D1AC42F5D154461443F2D1D9
:108A40000120C845EFD1994207D0002DEBD16346F4
:108A50001F433800471EB841E5E70020E3E7C04662
:108A6000FF070000F0B54F464646D6464D00C0B55C
:108A70000E03C90F8A462C491F035C008046360B43
:108A80006D0D91463F0B640DDB0F8D421ED08C4265
:108A900016D0002D1ED130438446002C01D13A431C
:108AA00023D06246002A1AD09A4529D05146022086
:108AB0000139084001381CBC90469946A246F0BDD9
:108AC00039001143E5D002204042F4E73043FAD1A7
:108AD000AC420FD0002C0FD13A43E7D00CE001227A
:108AE000013B934318000130E5E763460020002B6B
:108AF000E1D0DBE73A43E6D19A45D7D1A542D5DCB0
:108B0000A54205DBBE42D1D808D00020BE42D2D259
:108B100050460123013898430130CCE7C845C5D8F9
:108B20000020C845F4D3C6E7FF070000F0B54F4664
:108B30004646D6464D00C0B50E03C90F8A462E499B
:108B40001F035C008046360B6D0D91463F0B640D94
:108B5000DB0F8D4218D08C4211D0002D18D130433C
:108B60008446002C1ED13A431CD163460020002BC2
:108B700030D0514602200139084001382AE039003E
:108B80001143EAD0022025E03043FBD1AC4226D08D
:108B9000002C26D13A4324D1514602200139084005
:108BA000013817E06246002A0FD09A45E1D1A5426C
:108BB00005DBBE42DDD819D00020BE420AD25046A5
:108BC000012301389843013004E00122013B934323
:108BD000180001301CBC90469946A246F0BD3A43AD
:108BE000D0D19A45C5D1A542C3DCE0E7C845C0D87D
:108BF0000020C845E3D3EDE7FF070000F0B5574676
:108C0000DE464E464546E0B5834606000F03480063
:108C100087B092461D003F0B400DCC0F002800D1BD
:108C20006FE0DE4B984238D08023FF001B041F43C7
:108C3000730F3B430193DA4B0027994600239B4671
:108C4000F60081442B0369001B0B52469846490DE0
:108C5000ED0F002900D185E0D04B994200D173E09F
:108C60004346DA0080231B0413435246CC48520F7C
:108C700084461343524600206144D20089442100B7
:108C8000694000918C46012149448A460F2F00D942
:108C900090E0C449BF00CF59BF465B463B430193B8
:108CA00000D06AE102230827002681469B46C9E7D7
:108CB00032005846019B61460091022800D175E0C0
:108CC000032800D1FEE1012800D02CE10023002779
:108CD000002600253F032A0D3F0BB34812053A43F7
:108CE00002401B051343009A5B00D1075B080B434E
:108CF0003000190007B03CBC90469946A246AB46EE
:108D0000F0BD5B463B43019300D12FE1002F00D122
:108D1000A5E1380000F0C0FE03000B3B1C2B00DD7A
:108D200096E11D22D31A5A460100DA405E46083900
:108D30008F4013008E403B4301939C4B00271B1A2E
:108D4000994600239B467DE7414653460B43934992
:108D50008C46E144002B00D01AE102220220174386
:108D600000228CE7134300D10DE14346002B00D1D4
:108D700081E1404600F090FE02000B3A1C2A00DD23
:108D800072E10100434608398B4098461D239A1A28
:108D90005346D3401A004346134352468A4049463D
:108DA000081A824989468144002068E77B4B0027E6
:108DB00000268EE7140C1204120C1100370C360436
:108DC000350C794328008C462E006043604483466E
:108DD00056432100300C8046584679434044029166
:108DE000844506D98846802149028C46E0444146A4
:108DF00002913604010C360C00048B4681191E0CBE
:108E00001B041B0C0391190079438C462800754301
:108E10006544A8465843050C45447743A94203D905
:108E2000802149028C466744290C8C463900000495
:108E3000000C2D042D186144AB4405915946049152
:108E400001990F043F0C080C3900514342439046EE
:108E500002008C46090C8B4662437C4344445C44CC
:108E6000A04503D98021490288464244210C884606
:108E700061460904090C8C46390059434343704349
:108E80007E430F0CF6182404BE19644442448C46F9
:108E9000B34203D980235B0298464044029B61465B
:108EA0009846049B370443449B46AB45AD416B4217
:108EB0000D0405992D0C8C467F196744FD18A846B2
:108EC0005D462D19A542A44193466442A446C3447D
:108ED000DC448F42BF4198459B4193459241A44554
:108EE000A4415B427F421F43360C52426442BF1989
:108EF0002243BF18624638184302D20D0399134328
:108F00006A020A43501E82416146ED0D2A434E0219
:108F10003243D90100D4B3E0012650083240024365
:108F2000DE0732435B08224C5444002C62DD5107BB
:108F300009D00F201040042805D0101D9042924106
:108F400052429B180200D90104D580241948E4003C
:108F5000034054441848844200DD27E75E075B0263
:108F6000D2081F0B630516435B0DB2E6002399463A
:108F70000133042700269B4664E6032301978146BC
:108F80000C279B465EE6012201201743002276E66D
:108F9000032303201F43434671E6C046FF0700003A
:108FA00001FCFFFFE8DC0000FFFF0F800DFCFFFF6E
:108FB000FF030000FFFFFFFEFE07000000238027E5
:108FC00000933F030026434B83E6019B3200A446F7
:108FD000584670E6AC466EE6802701993F03394259
:108FE0002DD03B422BD11F433F033F0B0095160072
:108FF000384B6EE601252D1B382D00DD66E61F2D52
:1090000040DC35481C005044160082408440EE404D
:10901000501E824134431443EB40620709D00F22B3
:109020002240042A05D02200141D9442804140426F
:109030001B181A023ED501230027002649E6802787
:10904000019B3F031F433F033F0B0094214B40E62E
:1090500003005A46283B9A40002601926DE6584686
:1090600000F01AFD203057E603005246283B9A4094
:109070001300002293E6504600F00EFD20307BE600
:10908000CA4650E71F201E004042041BE640202D28
:1090900003D0124C5444A3401A43501E8241324321
:1090A00007260027164009D00F2000231040140087
:1090B0000428B9D122005E075B021F0BD2081643B9
:1090C000002306E680273F031F433F033F0B1600A4
:1090D000004BFEE5FF0700001E0400003E040000F8
:1090E000F8B557464E464546DE460C000903E0B546
:1090F000490A460F5F0031431E03DB0F760A9B4689
:10910000530F3343C84E6500C000E40FD2006D0D0D
:10911000A24681467F0D9C469046B74200D1B9E0F9
:109120005B46012673409B46EE1BA34500D183E0BE
:10913000002E63DD002F00D0B1E06346134300D161
:1091400023E1731E002B00D0BAE1861A6346B042B9
:1091500080410125C91A4042091A0B0200D447E197
:1091600049024B0A98464346002B00D189E140460C
:1091700000F092FC0300083B1F2B00DD7CE1202265
:109180003000D21A4146D040994002009E400A4326
:109190009D4200DD6AE15D1B6B1C1F2B00DD94E12D
:1091A000202110003500C91A8E40DA408840DD4089
:1091B000711E8E41110007222843002506433240CC
:1091C000002A09D00F233340042B05D0331DB342AE
:1091D000B641764289191E000B0200D43DE26A1C9A
:1091E000914B55056D0D9A4200D119E18F4AF60851
:1091F0000A40570752023743120B9BE0002E00D063
:10920000C5E06E1C7605760D012E00DC48E1674650
:10921000861ACB1BB042BF417F42B8461F0043466F
:10922000FF1A3B00B8461B0200D55FE137439AD1D5
:1092300000220024002579E0002E00DCFAE0002F57
:1092400000D18DE0784B9D4267D0802367461B0498
:109250001F43BC46382E00DC52E1634613435A1EBE
:1092600093411E1886428041404209180B0200D4E7
:10927000BEE06D4B01359D4200D1D2E06B4A7308D0
:109280000A4001210E401E435108D30707221E4306
:10929000324095E71E00164300D045E740E7624B99
:1092A0009D423AD0802367461B041F43BC46382E9C
:1092B00000DDEBE01F2E00DC3AE133006746203B87
:1092C000DF403B00202E05D04027BF1B6646BE4036
:1092D000324390464646721E96413343DAE0002BF5
:1092E00000D114E26346134300D168E180234E07A6
:1092F000C008C9081B030643194208D06046C008CD
:10930000184204D163460100D2085E071643F300F9
:109310009946C900720F444D11434B46DE08424B3B
:109320004F073743CA089D4200D16EE012036D0516
:10933000120B6D0D00211203130B0A0D12051A43B7
:109340003B4B2D0513402B435B00E4075B08234395
:10935000380019003CBC90469946A246AB46F8BD81
:109360006346134311D0731E002B00D007E186180B
:109370008642804161444042091801250B0237D5DD
:1093800002257BE73E00614691463500C5E75C4615
:10939000002D00D0E1E00B000343F3D0731C00D19B
:1093A000ACE1214B9F4200D13AE1F343382B00DD81
:1093B0006FE11F2B00DD8CE120250E00ED1AAE4081
:1093C000B0460600AA46DE40454635432E005546C7
:1093D000D940A8406346451EA8415B1A9C463043CD
:1093E000161AB242924163465242991A3D00B4E6BF
:1093F00007223240002A00D0E4E60B4BF6084F0764
:109400003743CA089D4200D090E73B00134300D188
:10941000A6E180231B031A431203120B024D89E7B6
:1094200015000022002785E7FF070000FFFF7FFFF0
:10943000FFFF0F80002E00D0C7E06B1C5E05760D8D
:10944000012E00DCF0E0C84DAB4200D1B9E0851838
:109450000A00854289416244494251180722CE07D9
:109460006D082E43490832401D00A9E6BF49ED1A98
:10947000114007223240A3E63200283882400026FD
:1094800086E6300000F008FB203073E663461343A5
:109490005A1E9341C61AB04280414042091A5CE606
:1094A0000E00674606431743002D5ED1002E00D004
:1094B000F3E0002F00D11EE15C46614691462CE7A7
:1094C000A94FBE427BD01E00F1E610001F3DE840D0
:1094D000202B03D04021CB1A9A401643731E9E4185
:1094E0000722064332400021002583E7161A63460F
:1094F000B2428041591A40420B1A98465C4632E605
:109500001F2E00DDABE02027BB1B9A466346574663
:10951000BB40994613004F46F3401F433B0057465C
:10952000BA40571EBA4113436246F240891898E682
:109530002027BB1B9A4663465746BB4099461300FB
:109540004F46F3401F433B005746BA40571EBA41AF
:1095500013436246F240891A9CE7834B9F425FD0D7
:1095600080252D047342294320E7002E0CD1002FC3
:1095700000D1D0E05C46614691467B4DCDE67A4F06
:10958000BE421CD01E0065E6002F18D0C0084E0752
:1095900006438020C9080003014208D06346DC0866
:1095A000044204D12100DA46D2085E071643F300D4
:1095B000994601245346C900720F11431C406A4D5D
:1095C000ABE61D0000220027B4E6002D59D10B00A8
:1095D000034300D1D6E6731C00D1B2E0624B9F4238
:1095E0001ED0F343382B6FDC1F2B00DD97E02025C6
:1095F0000E00ED1AAE40B0460600AA46DE404546D3
:1096000035432E005546A840D940451EA8418C44FC
:109610000643B61896429241514261443D0025E608
:109620003D006146914678E60B000343002D00D0D3
:1096300055E6002BF5D06346134300D16DE686183E
:109640008642804161444042091800220B0200D446
:10965000D0E6464B01351940B2E5B1465DE6330030
:109660006746203BDF403B00202E05D04027BF1B34
:109670006646BE40324390464646721E964133438C
:10968000EFE5394B9F42CBD080252D04734229430F
:10969000A8E70843411E8841A2E6002F00D13CE61E
:1096A0006346861ACF1AB0429B415B42FB1A98462A
:1096B0001B024ED5161A6346B2429241591A5242C3
:1096C000891A5C4600227BE501430E00711E8E4123
:1096D0009FE71D000E00203DEE40B046202B04D039
:1096E0004025EB1A99400843814648464346411EAF
:1096F0008841184374E60022002417E6161A6346D0
:10970000B2429241591A5242891A3D0025E56146FA
:109710009146154D01E680220024120379E61D00D2
:109720000E00203DEE40B046202B04D04025EB1A21
:109730009940084381464E464346711E8E411E4362
:1097400067E7861896429B4161445B42C9183D0019
:109750008CE547463743CED007224146324049E6A2
:1097600000273A00E6E5C046FF070000FFFF7FFF45
:1097700070B50C4E0D031C0349005B002D0B490D09
:10978000240B5B0DB14208D0064900208B4203D167
:1097900014432000441EA04170BD05430120002D4C
:1097A000FAD1F1E7FF07000030B5144D0A034B0072
:1097B000120B5B0DC90F0024AB4211DD104CA3420C
:1097C00010DC8024640322430E4CE41A1F2C0CDDB1
:1097D0000D48C31ADA4013005C42002900D11C0076
:1097E000200030BD094BCC18FAE7094DE040AC46EB
:1097F00063449A4013000343EEE7C046FE030000B3
:109800001D0400003304000013040000FFFFFF7F6D
:10981000EDFBFFFF70B500282DD0C317C5185D40C4
:10982000C40F280000F038F9154B1B1A5B055B0DBF
:109830000A2815DD0B38854000222D032D0B002151
:1098400010002D030A0D2D0B12052A430D4D1B058B
:109850002A4013435B00E4075B082343190070BDF3
:1098600002002900153291400A000B21081AC54058
:109870002D032D0BE3E70024002300250022DEE763
:109880001E040000FFFF0F8010B5041E25D000F05D
:1098900003F9144B1B1A5B055B0D0A2812DD0B380C
:1098A000844000222403240B0021100024030A0D0D
:1098B000240B120522430C4C1B05224013435B0072
:1098C000590810BD02002100153291400A000B21F9
:1098D000081AC4402403240BE6E7002300240022D6
:1098E000E2E7C0461E040000FFFF0F804100090EA2
:1098F0004B1C70B5DBB24602750AC40F012B14DD98
:10990000E0239B006D07360BCB1800210A0D2800C1
:1099100012051C4D32435B052A405B0813435B0074
:10992000E4075B082343190070BD002914D1002D02
:109930001ED0280000F0B0F80A281CDC0B232A00F7
:109940001B1ADA40030015339D400F4B12031B1AFC
:109950005B05160B5B0DD8E7002D06D0320B802679
:1099600036036D071643094BCFE7084B0026CCE7BB
:1099700000230026C9E703002A000B3B9A4000257C
:10998000E3E7C046FFFF0F8089030000FF070000E8
:10999000F0B54C00640D0B03621C5B0A460F5205C8
:1099A000C90F1E43C500520D012A29DD374BE718A8
:1099B000FE2F1CDC002F3BDD8001431E9841072257
:1099C000F3006D0F03432B431A40002A04D00F22EB
:1099D0001A40042A00D004338022D2041A4024D032
:1099E0000137FAB2FF2F02D09B01580A01E0FF2293
:1099F00000204002D205400AC90710430843F0BDC9
:109A00003543002C04D1002D0AD100220020F0E7BC
:109A1000002DECD08020C0033043FF22E9E7002472
:109A200000235B02580AE2B2E3E7DB083C00F8E7F8
:109A30003B001733F3DB80231B0433431E26F61B46
:109A40001F2E14DD02225242D71B1A00FA401700C3
:109A5000202E04D00E4A94466444A3401D432B009C
:109A60005D1EAB4107223B431A400027ADE7094A80
:109A70002800A218954093406C1EA541F040072293
:109A80002B4303431A4000279FE7C04680FCFFFF9B
:109A9000A2FCFFFF82FCFFFF1C2101231B04984254
:109AA00001D3000C10391B0A984201D3000A08396F
:109AB0001B09984201D30009043902A2105C401826
:109AC0007047C046040302020101010100000000CA
:109AD0000000000010B5002903D1FFF7DDFF2030A2
:109AE00002E0081CFFF7D8FF10BDC04602780B78D3
:109AF000002A03D0013001319A42F7D0D01A7047C2
:109B00000023C25C0133002AFBD1581E704700B508
:109B100085B001900E236B4400221A8006E00E23CC
:109B20006B441A880E236B4401321A800E236B4457
:109B30001B88019AD3181B78002BF0D1019A0E23B1
:109B40006B441B881100180000F0FEF8C04605B0F9
:109B500000BD000010B584B0020000916B460733D1
:109B60001A70734B1B88002B06D1724B1B786A4608
:109B7000073212789A420AD16D4B1B88012B11D102
:109B80006C4B5B786A46073212789A420AD0684B6F
:109B900000221A80684B00221A800E236B44002298
:109BA0001A80BEE0624B1B885A1C91B2604A118039
:109BB0001A00009B9B186A46073212781A705C4B99
:109BC0001B88042B0DD1009B02331B789BB21B0218
:109BD0009AB2009B03331B789BB2D3189AB2564BB0
:109BE0001A80554B1B88002B00D196E0504B1B88E8
:109BF0001A00514B1B8808339A4200DA8DE0009B13
:109C00001A1D4D4B1B880A246C441900100000F0EB
:109C10000DF9030023800A236B441B881B0A9BB2A7
:109C2000DAB202AB1A700A236B441B88DAB202ABB9
:109C30005A703F4B1B88023B009AD3181A783F4B4F
:109C40001B789A421DD13A4B1B88013B009AD318CE
:109C50001A783A4B5B789A4213D102AB1A78344B9C
:109C60001B88043B0099CB181B789A4209D102ABA0
:109C70005A782F4B1B88033B0099CB181B789A42CC
:109C80000AD02B4B00221A802B4B00221A800E2365
:109C90006B4400221A8044E003AB00221A800FE0DC
:109CA00003AB1B880433009AD21803AB1B880099BE
:109CB000CB1812781A7003AB1A8803AB01321A80E2
:109CC0001D4B1B8803AA12889A42E9D3184B002225
:109CD0001A800E236B44184A12881A80164B1B8870
:109CE0001A00009B9B1800221A70134B1B88152B1F
:109CF0000FD1134A009B11001800FFF7F7FE031E57
:109D000007D1104B1800FFF702FF0E236B4400220F
:109D10001A80094B00221A8003E00E236B440022B4
:109D20001A800E236B441B88180004B010BDC04677
:109D3000900400200004002092040020040400206D
:109D4000D8D90000F0D9000010B584B0020000910D
:109D50006B4606331A800E246C446B4606331A8811
:109D6000009B1100180000F061F8030023802C4BC9
:109D70001A782C4B1B781900100001F0C7FC284BF7
:109D80001A78284B5B781900100001F0BFFC244BB7
:109D90001A786B4606331B881B0A9BB2DBB219008C
:109DA000100001F0B3FC1E4B1A786B4606331B887B
:109DB000DBB21900100001F0A9FC194B1878009AC9
:109DC0006B4606331B88190001F0F6FC144B1A7819
:109DD0000E236B441B881B0A9BB2DBB219001000D8
:109DE00001F094FC0E4B1A780E236B441B88DBB2F7
:109DF0001900100001F08AFC094B1A780A4B1B78F5
:109E00001900100001F082FC054B1A78064B5B78B4
:109E10001900100001F07AFCC04604B010BDC04625
:109E200006040020000400200404002084B00190F7
:109E30000A006B4602331A800A236B440122524205
:109E40001A800E236B4400221A803BE00E236B44E1
:109E50001B88019AD3181B7899B20A236B440A22F3
:109E60006A4412884A401A8003AB00221A801EE01E
:109E700002AB0A226A44128801210A401A800A238E
:109E80006B440A226A44128852081A8002AB1B886B
:109E9000002B07D00A236B440A226A441288104917
:109EA0004A401A8003AB1A8803AB01321A8003AB15
:109EB0001B88072BDCD90E236B441A880E236B44B6
:109EC00001321A800E226A446B46023312881B88C4
:109ED0009A42BBD30A236B441B88180004B0704716
:109EE00001A0FFFF00B585B002006B4606331A8063
:109EF0000F236B446A46063212881A700F236B4494
:109F00001B78180000F004F80300180005B000BD2D
:109F100084B002006B4607331A700E236B44002294
:109F20001A806B4607331A780D4B1F210A401A60BE
:109F3000C0460B4B1B6880221340FAD0084B1A69AD
:109F40000E236B441A80064B1A68054B80218A4306
:109F50001A600E236B441B88180004B07047C0467B
:109F600000B0034010B586B002006B4606331A807D
:109F70006B4606331B881800FDF7DAFE031C2849E0
:109F8000181CFDF775FB031C2649181CFDF798F9F2
:109F9000031C059305992248FDF79CFC031C0493C0
:109FA00004990598FDF78CF9031C03930398FFF7B8
:109FB0009DFC03000C001800210003F087FA00222A
:109FC000194BFEF711FA03000C0018002100174A84
:109FD000174BFDF7EDFE03000C001A0023000020D4
:109FE0001449FEF701FA03000C0018002100124A80
:109FF000124BFFF775F803000C0018002100002237
:10A000000F4BFDF7D5FE03000C0018002100FFF7F1
:10A01000BFFC031C0293029B181C06B010BDC04677
:10A0200000404E4500FF7F4700DCAE4083DBB5DCDF
:10A03000E1796B3F0000F03F66666666661271402C
:10A040000000E03F10B584B002006B4606331A8072
:10A050006B4606331B881800FFF7DCFB134A144BD2
:10A06000FEF7CCFD03000C00180021000022114B6C
:10A07000FFF736F803000C00180021000E4A0F4BC2
:10A08000FEF7B2F903000C001A00230000200C496F
:10A09000FFF726F803000C0018002100FFF778FCFA
:10A0A000031C0393039B181C04B010BD9A99999943
:10A0B0009999A93F00788640713D0AD7A370FB3F6C
:10A0C000000039403B493C4AC0239B028B50394A2F
:10A0D0003A4BD3583749802292001343374A8B506A
:10A0E000374B9B78DBB21A000823134007D0344B60
:10A0F0009B78DBB2324A08210B43DBB293702D49C7
:10A100002D4A80235B028B502A4A2E4BD358294973
:10A110002D4A13402B4A8B50264B1A68254B2B494E
:10A120000A401A60234A274BD358294A1340214931
:10A13000802252041343234A8B50264B06221A7066
:10A14000244B5B78DBB2234A40210B40DBB25370D7
:10A15000204BDB78DBB25BB21F2213405BB2602284
:10A16000524213435AB21B4BD2B2DA701A4B00223E
:10A170001A70184B00221A71164B00225A71C046F1
:10A18000144B9B79DBB21A0010231340F8D0C04661
:10A19000104B9B79DBB21A000C231340F8D1054A0F
:10A1A000064BD3580349F82292011343034A8B50BC
:10A1B000C046704700700440441000003810000092
:10A1C00000D0074004100000FFFFFCFFFFFFF3FF7B
:10A1D000FFFFFFFC004006400050064010B582B073
:10A1E000020000916B4607331A706B4607331B78E9
:10A1F0007F2B36D9324A6B4607331B7819000F2361
:10A200000B40083B9B0806339B00D31804331B68A4
:10A210006A4607321278110003220A40D200FF2159
:10A2200091400A00D2431A401100009B9B01FF227B
:10A230001A406B4607331B78180003230340DB00EA
:10A240009A401F486B4607331B781C000F2323409E
:10A25000083B9B080A4306339B00C31804331A606B
:10A260002BE0184A6B4607331B785BB29B08C03360
:10A270009B009B586A4607321278110003220A405D
:10A28000D200FF2191400A00D2431A401100009BE6
:10A290009B01FF221A406B4607331B7818000323EB
:10A2A0000340DB009A4007486B4607331B785BB2DC
:10A2B0009B080A43C0339B001A50C04602B010BD31
:10A2C00000ED00E000E100E000B583B002006B4665
:10A2D00007331A70164B00221A60154B00229A6041
:10A2E0006B4607331B78002B03D16B4607330A22DA
:10A2F0001A70104B1A68FA2399001000FCF7D4FC6E
:10A3000003001A006B4607331B785A43084B1209A7
:10A310005A6001235B4203211800FFF75FFF044BE3
:10A320001A68034B03210A431A60C04603B000BDFC
:10A3300010E000E00804002010B592B072B600F002
:10A34000D1FC42236B4401221A70CA4B00221A70BE
:10A35000C84B00225A70C74B00229A7041236B44AD
:10A36000C44A92781A7001220121052000F0E8FB0E
:10A37000012201210D2000F0E3FB012201210C202C
:10A3800000F0DEFB01F04CFB9F235A0000230093FA
:10A390001300EE220221022001F09AFEB649F823B2
:10A3A0001A02B64B00930B0014215C2001F06CFDE7
:10A3B000B149F8231A02B24B00930B0028213C202C
:10A3C00001F062FD002300937823EC22502102204B
:10A3D00001F07EFEA84AAB4B0093130000225C21E3
:10A3E000062001F051FDE1235B021900002001F07D
:10A3F00037F8E1235B021900022001F031F8A24B8B
:10A400001B685C331B6898470A20FFF75DFF00203C
:10A4100001F0BCFA62B6119B01331193119B9B4A68
:10A42000934200D86CE300231193994B1B78012BC6
:10A4300000D0BAE2904A974B0093130000222821E3
:10A440003C2001F021FD944B1B78082B49D1934B04
:10A4500093490322180003F0ADFA031E41D10021F5
:10A46000052000F0E9FB01210D2000F0E5FB0121B2
:10A470000C2000F0E1FB804A8A4B0093130000227D
:10A480005C21462001F000FD7B49F8231A02864B2F
:10A4900000930B005C21462001F0F6FC43236B4443
:10A4A0001E221A7010E0F823190243236B441A7815
:10A4B0000B00CD21782001F089FB43236B4443221C
:10A4C0006A441278023A1A7043236B441B78022BB9
:10A4D000E9D8764B1900002001F0B3F96C4B00224B
:10A4E0001A706D4B1B78092B46D16C4B70490422B6
:10A4F000180003F05FFA031E3ED100210D2000F08A
:10A500009BFB0121052000F097FB01210C2000F0AE
:10A5100093FB594A634B0093130000225C214620B1
:10A5200001F0B2FC544A624B009313001F225C21DD
:10A53000462001F0A9FC43236B441E221A700EE052
:10A5400043236B441A781F23CD21782001F03EFB72
:10A5500043236B4443226A441278023A1A7043231D
:10A560006B441B78022BEBD8524B1900002001F0F2
:10A5700068F9474B00221A70474B1B780A2B49D1C8
:10A58000464B4D490522180003F014FA031E41D131
:10A5900000210C2000F050FB0121052000F04CFBB5
:10A5A00001210D2000F048FB334A3E4B009313007D
:10A5B00000225C21462001F067FC2F49FC23DA00D1
:10A5C0003D4B00930B005C21462001F05DFC4323D2
:10A5D0006B441E221A7010E0FC23D90043236B4405
:10A5E0001A780B00CD21782001F0F0FA43236B4458
:10A5F00043226A441278023A1A7043236B441B7850
:10A60000022BE9D82D4B1900002001F01AF9204B3C
:10A6100000221A70204B1B78092B72D11F4B28493E
:10A620000422180003F0C6F9031E6AD100210D2090
:10A6300000F002FB00210C2000F0FEFA01210520B1
:10A6400000F0FAFA0C4A174B0093130000225C2129
:10A65000462001F019FC08491A4A194B00930B00D7
:10A660005C21462001F010FC43236B441E221A702B
:10A670003AE0C046A00400203084000008DA000060
:10A6800014DA000028DA000098040020FFFF1F0001
:10A690009C04002030DA0000A4040020A50400205F
:10A6A00044DA000048DA000054DA00005CDA000006
:10A6B00068DA000070DA00007CDA000084DA00005A
:10A6C00090DA0000FF7F0000974943236B441A781B
:10A6D0000B00CD21782001F079FA43236B4443220B
:10A6E0006A441278023A1A7043236B441B78022B97
:10A6F000EAD88E4B1900002001F0A3F88C4B002201
:10A700001A708C4B1B780B2B47D18B4B8B49062235
:10A71000180003F04FF9031E3FD10021052000F07F
:10A720008BFA00210D2000F087FA01210C2000F0A7
:10A7300083FA834A834B0093130000225C21462056
:10A7400001F0A2FB7E49804A7C4B00930B005C2108
:10A75000462001F099FB43236B441E221A700FE040
:10A76000794943236B441A780B00CD21782001F0FE
:10A770002DFA43236B4443226A441278023A1A703A
:10A7800043236B441B78022BEAD8704B190000203E
:10A7900001F057F8664B00221A70664B1B780B2BA2
:10A7A00047D1654B6A490622180003F003F9031EDE
:10A7B0003FD10021052000F03FFA00210C2000F0DD
:10A7C0003BFA01210D2000F037FA5D4A5D4B009302
:10A7D000130000225C21462001F056FB58495D4AD7
:10A7E0005B4B00930B005C21462001F04DFB4323A3
:10A7F0006B441E221A700FE0564943236B441A78AB
:10A800000B00CD21782001F0E1F943236B44432272
:10A810006A441278023A1A7043236B441B78022B65
:10A82000EAD84D4B1900002001F00BF8404B0022F4
:10A830001A70404B1B780A2B47D13F4B47490522E2
:10A84000180003F0B7F8031E3FD10021052000F0E7
:10A85000F3F900210D2000F0EFF900210C2000F0A9
:10A86000EBF9374A374B0093130000225C21462056
:10A8700001F00AFB32493A4A384B00930B005C2145
:10A88000462001F001FB43236B441E221A700FE0A7
:10A89000334943236B441A780B00CD21782001F013
:10A8A00095F943236B4443226A441278023A1A70A2
:10A8B00043236B441B78022BEAD82A4B1900002053
:10A8C00000F0BFFF1A4B00221A701A4B1B78082B9E
:10A8D0006BD1194B24490322180003F06BF8031EB7
:10A8E00063D10121052000F0A7F901210D2000F01E
:10A8F000A3F901210C2000F09FF9114A114B00939C
:10A90000130000225C21462001F0BEFA0C4A174BCE
:10A910000093130000225C21462001F0B5FA432386
:10A920006B441E221A7033E0FF7F000098DA0000AB
:10A930009C040020A4040020A5040020B0DA00003C
:10A940003084000048DA00001FF80000B8DA000088
:10A95000D0DA0000E0FF0000D8DA0000F0DA0000F2
:10A96000FFFF0000F8DA000010DB000014DB00003D
:10A97000644943236B441A780B00CD21782001F001
:10A9800025F943236B4443226A441278023A1A7031
:10A9900043236B441B78022BEAD85B4B1900002041
:10A9A00000F04FFF594B00221A70594B1B78012BB6
:10A9B00000D030E5534A574B009313000022282162
:10A9C0003C2001F061FA544B1B78092B2ED1534BDC
:10A9D00053490422180002F0EDFF031E26D13E2445
:10A9E0006C441A20FFF77EFA030023803E236B4459
:10A9F0001B881800FFF726FB031C0E9302AA0E9B70
:10AA00000121181C00F0B6FB464B1900002000F095
:10AA100018FF02AB1900002000F013FF424B190091
:10AA2000002000F00EFF3A4B00221A703A4B1B78C0
:10AA30000C2B28D1394B3D490722180002F0BAFFF0
:10AA4000031E20D10220FFF74DFA03001800FFF784
:10AA500089FA031C0D9302AA0D9B0121181C00F01A
:10AA600089FB334B1900002000F0EBFE02AB19000C
:10AA7000002000F0E6FE2C4B1900002000F0E1FE63
:10AA8000234B00221A70244B1B780A2B00D0C2E4FF
:10AA9000224B28490722180002F08CFF031E00D029
:10AAA000B9E432246C440720FFF71CFA030023802A
:10AAB00032236B441B881800FEF7ACFE00221E4BAD
:10AAC000FDF792FC03000C0018002100FEF760FF68
:10AAD00002AB1A00012100F04DFB184B19000020B9
:10AAE00000F0AFFE02AB1900002000F0AAFE0E4BF2
:10AAF0001900002000F0A5FE054B00221A708AE420
:10AB0000C04688E43084000020DB00009C04002064
:10AB10009D04002030DA0000A4040020A5040020D9
:10AB200028DB000030DB00003CDB000040DB0000E5
:10AB300048DB000054DB0000000024405CDB000028
:10AB400010B586B00400080011006B460633221CC5
:10AB50001A806B460533021C1A7001AB0A1C1A706E
:10AB60000E226A440F2169446B4606331B88180085
:10AB700000F0A0F80F236B441B781A002B4B9200B7
:10AB8000D35805930F236B441B781A00284B92006F
:10AB9000D35804930E236B441B781A00059B920034
:10ABA000D3580E226A4412781000224A134019002A
:10ABB000059B8200D1500E236B441B781A00059B25
:10ABC0009200D3580E226A4412781000802252005C
:10ABD0001A431100059B8200D1506B4605331B7848
:10ABE000012B14D1049B5B690E226A441278110078
:10ABF00001228A401A43049B5A6101AB1A786B46C2
:10AC000006331B881100180000F016F80BE0049BB7
:10AC10005B690E226A441278110001228A40D243F5
:10AC20001A40049B5A61C04606B010BD28DD0000E2
:10AC30003CDD0000FFF8FFFF00B585B002006B4669
:10AC400006331A806B4605330A1C1A700A226A44BE
:10AC50000B2169446B4606331B88180000F02AF864
:10AC60000B236B441B781A00114B9200D3580393AB
:10AC70006B4605331B78012B0BD1039B1B680A2203
:10AC80006A441278110001228A401A43039B1A6019
:10AC90000BE0039B1B680A226A4412781100012210
:10ACA0008A40D2431A40039B1A60C04605B000BDDB
:10ACB0003CDD000084B0029101920E236B44021C23
:10ACC0001A800E236B441B881B0A9BB2DAB2029BCC
:10ACD0001A700E236B441B88DAB2019B1A70C046AF
:10ACE00004B07047064A88235B01D35804490C22FC
:10ACF00093431A0088235B01CA50C0467047C04680
:10AD000000700440044A054B5521D150024A034BC0
:10AD1000AA21D150C04670470070044004110000C1
:10AD200030B585B005000C00100019006B460733E4
:10AD30002A1C1A706B460633221C1A7001AB021CC7
:10AD40001A806B4603330A1C1A706B4607331B7854
:10AD5000012B03D96B46073300221A706B46073369
:10AD60001B78002B00D0DCE0DE4ADF4BD358DD49F6
:10AD70008022D2031343DC4A8B50DC4B80229200AA
:10AD80001A61DA4B802292005A61D84B80229200DD
:10AD90009A61D64B80229200DA61FFF7B3FFD44B61
:10ADA0000022DA70D24BDB78DBB2D14A40210B4370
:10ADB000DBB2D3706B4606331B78012B08D1CC4B2A
:10ADC000DB78DBB2CA4A10210B43DBB2D37008E058
:10ADD000C74BDB78DBB2C649802252421343DBB259
:10ADE000CB706B4603331B78002B08D1C04BDB784C
:10ADF000DBB2BF4A08218B43DBB2D37007E0BC4B08
:10AE0000DB78DBB2BA4A08210B43DBB2D37008AB64
:10AE10001B78002B08D1B64BDB78DBB2B44A042197
:10AE20008B43DBB2D37007E0B14BDB78DBB2B04AC7
:10AE300004210B43DBB2D370FFF764FFAC4BDB782C
:10AE4000DBB2AB4A02210B43DBB2D370A84B00222A
:10AE50009A706B4606331B78012B07D1A44B9B7865
:10AE6000DBB2A34A10210B43DBB29370A04B00224C
:10AE70005A700D236B4400221A700E236B4400227B
:10AE80001A7001AB1B8819009A48FBF797FF030063
:10AE90001A000F236B441A70FFF734FF0F236B4423
:10AEA0001B78082B19D80F236B441B78013BDBB2AE
:10AEB0008F4A1B01DBB2537011E1FFF723FF0E2312
:10AEC0006B441A780E236B4401321A700F236B44C3
:10AED0000F226A44127852081A700F236B441B78B1
:10AEE000112BEAD80F236B440F226A441278013ADF
:10AEF0001A700D236B440F226A4412781A707C4A30
:10AF00000D236B441B781B01DBB25370784B5B78CD
:10AF1000DAB277490E236B441B781343DBB24B70D4
:10AF2000DDE0FFF7EFFE6F4A6F4BD3586D4980228B
:10AF3000120413436C4A8B506F4B802292001A61AB
:10AF40006D4B802292005A616B4B802292009A6175
:10AF5000694B80229200DA61FFF7D4FE674B002232
:10AF6000DA70664BDB78DBB2644A40210B43DBB21C
:10AF7000D3706B4606331B78012B08D15F4BDB780F
:10AF8000DBB25E4A10210B43DBB2D37008E05B4BAF
:10AF9000DB78DBB25949802252421343DBB2CB70DB
:10AFA0006B4603331B78002B08D1544BDB78DBB2A4
:10AFB000524A08218B43DBB2D37007E04F4BDB785A
:10AFC000DBB24E4A08210B43DBB2D37008AB1B78CF
:10AFD000002B08D1494BDB78DBB2484A04218B4374
:10AFE000DBB2D37007E0454BDB78DBB2434A042188
:10AFF0000B43DBB2D370FFF785FE404BDB78DBB24F
:10B000003E4A02210B43DBB2D3703C4B00229A70C4
:10B010006B4606331B78012B07D1384B9B78DBB28C
:10B02000364A10210B43DBB29370344B00225A7026
:10B030000D236B4400221A700E236B4400221A70F9
:10B0400001AB1B8819002B48FBF7B8FE03001A0060
:10B050000F236B441A70FFF755FE0F236B441B78C8
:10B06000082B19D80F236B441B78013BDBB2204A15
:10B070001B01DBB2537032E0FFF744FE0E236B443A
:10B080001A780E236B4401321A700F236B440F227F
:10B090006A44127852081A700F236B441B78112BE4
:10B0A000EAD80F236B440F226A441278013A1A70CF
:10B0B0000D236B440F226A4412781A700C4A0D2338
:10B0C0006B441B781B01DBB25370094B5B78DAB21F
:10B0D00007490E236B441B781343DBB24B70C04609
:10B0E00005B030BD007004403410000000B00440D2
:10B0F00000600740C05D000000C0044000700740D1
:10B1000084B002006B4607331A706B4606330A1C84
:10B110001A706B4607331B78144A944663441B032A
:10B120000293C046029B1B78DBB21A002023134017
:10B13000F8D0029B6A46063212789A710023039374
:10B140000BE0029B1B78DBB21A002023134001D0D6
:10B15000012307E0039B01330393039B044A9342BB
:10B16000EFD90023180004B07047C04676000400F1
:10B17000EFFF000010B58CB0039002910192019B8B
:10B180000593059B079300230A930023099300214D
:10B190000398FBF74FFF031E07D001230A9303997F
:10B1A0000020FCF797FB031C03930398FCF756FD64
:10B1B00003000B930B98FCF771FD031C191C0398FB
:10B1C000FCF788FB031C08930B9B0A211800FBF774
:10B1D000DBFE0B000493049BDBB23033D9B2059B3A
:10B1E0005A1C05924AB21A700B9B0A211800FBF7F1
:10B1F000E5FD03000B930B9B002BE5D10A9B012B74
:10B2000004D1059B5A1C05922D221A70059B0693AA
:10B21000069B013B06932CE0079B1B785BB2DAB2DE
:10B22000069B1B785BB2DBB2D318DBB25AB2079B2A
:10B230001A70079B1B785BB2DAB2069B1B785BB275
:10B24000DBB2D31ADBB25AB2069B1A70079B1B788B
:10B250005BB2DAB2069B1B785BB2DBB2D31ADBB20D
:10B260005AB2079B1A70079B01330793069B013B59
:10B270000693079A069B9A42CED3059B5A1C0592C9
:10B280002E221A702C490898FCF7F2F9031C181C9E
:10B29000FCF7E4FC03000493049BDBB23033D9B227
:10B2A000059B5A1C05924AB21A70099B01330993F7
:10B2B000099A029B9A4236D01F490898FCF7D8F9A0
:10B2C000031C1C1C0498FCF7E9FC031C191C201C23
:10B2D000FCF700FB031C08930898FEF707FB01230B
:10B2E0001C1C164A164BFBF77FFE031E01D10023E0
:10B2F0001C1CE3B201225340DBB2002BC2D10898E0
:10B30000FEF7F4FA01231C1C0C4A0E4BFBF758FE07
:10B31000031E01D100231C1CE3B201225340DBB207
:10B32000002BAFD100E0C046059B00221A70019BA4
:10B3300018000CB010BDC046000020418DEDB5A036
:10B34000F7C6B0BEF7C6B03E10B5354CA5440023D5
:10B35000FFAA08321360334B9822D2011A60314B96
:10B360001B6870331B681C008023DA00D023D901CE
:10B3700001AB1800A0472C4BFFAA0C329446634443
:10B380009A6FFFAB08331B6878331B689A420DD164
:10B39000254BFFAA0C32944663448C229A58FFAB8B
:10B3A00008331B688C331B689A422AD01D4B1B68DC
:10B3B00060331B681A209847FFAB08331B6878334B
:10B3C0001B681A00184BFFA90C318C4663449A671E
:10B3D000FFAB08331B688C331B681900124BFFAAA4
:10B3E0000C32944663448C2299500E4B1B68683390
:10B3F0001B681C0001AA8023D900D023DB011800A0
:10B40000A0470A4BD022D2019A60094B180002F0E3
:10B410003FF8FFF777FCC0468123DB009D4410BD59
:10B42000F8FBFFFF98040020FCFBFFFF00ED00E0AD
:10B4300064DB000082B002006B4607331A706B4673
:10B4400007331B781A001F231A40044B0121914037
:10B450000A001A60C04602B07047C04600E100E032
:10B4600000B587B0020000916B4607331A709F4BFE
:10B4700003936B4607331B78180000F0C7FA031ECE
:10B4800000D12FE16B4607331B78002B00D099E0E9
:10B49000974A984BD35896498022D2041343954A31
:10B4A0008B50934A934BD3589149934A1340914AF6
:10B4B0008B50924B1A6D914B8021C9000A431A653B
:10B4C0008E4B5A6D8D4B8021C9000A435A65C04688
:10B4D000874A8B4BD35886498022D2001343884A2F
:10B4E0008B50039BDB78DBB20C229343DAB2039BD5
:10B4F000DA70844B1A68FA2399001000FBF7D4FB2A
:10B5000003001A0013005B019B1A9B009B18DB00D1
:10B510001A00009B1B0119001000FBF7C5FB03007C
:10B520001A0012236B441A80039B1B78DAB2112392
:10B530006B441F218A431A7012236B441B881B1211
:10B54000DBB21F221340DAB211236B441B78134382
:10B55000DAB2039B1A7012236B441B88DAB2039B86
:10B560005A70039B0F229A72039B00229A70039BCE
:10B5700000229A71039B00221A72039B00225A72C6
:10B58000039B1B79DBB21F221343DAB2039B1A71B0
:10B59000039B5B79DBB2402252421343DAB2039B36
:10B5A0005A71039BDB78DBB27F221340DAB2039B34
:10B5B000DA70039BDB78DBB20C221343DAB2039B15
:10B5C000DA7090E06B4607331B78012B02D0022B18
:10B5D00013D025E0494BC02292001A60474BC0228D
:10B5E00092005A60C046424A454BD3584049802297
:10B5F00012011343424A8B5012E0404BC02292008A
:10B600001A643E4BC02292005A64C046384A3C4BF2
:10B61000D3583749802252011343394A8B50C046D0
:10B620006B4607331B785A1E374B9200D35805934D
:10B63000059BDB78DBB20C229343DAB2059BDA7010
:10B64000304B1A68FA23D9001000FBF72DFB0300DA
:10B650001A0013005B019B1A9B009B18DB001A0069
:10B66000009B1B0119001000FBF71EFB03001A00D2
:10B6700012236B441A80059B1B78DAB211236B44AA
:10B680001F218A431A7012236B441B881B12DBB2E2
:10B690001F221340DAB211236B441B781343DAB232
:10B6A000059B1A7012236B441B88DAB2059B5A70F3
:10B6B000059B00229A70059B00229A71059B00222F
:10B6C0005A71059BDB78DBB27F221340DAB2059B0F
:10B6D000DA70059BDB78DBB20C221343DAB2059BF0
:10B6E000DA7000E0C04607B000BDC04600A00640CA
:10B6F0000070044004100000FFFFFEFF00D0044073
:10B70000341000000804002050DD000000B587B0B0
:10B7100002006B4607331A706B4606330A1C1A7018
:10B72000224B04936B4607331B785A1E204B920022
:10B73000D35803936B4607331B78180000F066F963
:10B74000031E01D100232DE0002305931FE06B466B
:10B7500007331B78002B0BD1049B1B79DBB25BB248
:10B76000002B11DA049B6A4606321278DA7112E075
:10B77000039B1B79DBB25BB2002B05DA039B6A46A5
:10B7800006321278DA7106E0059B01330593059BBA
:10B79000084A9342DBD9059B064A934201D900230C
:10B7A00000E00123180007B000BDC04600A006401D
:10B7B00050DD0000BAFB000000B585B000926B467A
:10B7C0000733021C1A7001AB0A1C1A806B46073340
:10B7D0001B78180000F01AF9031E01D100232DE098
:10B7E0000E236B4400221A8015E00E236B441B8845
:10B7F000009AD3181A786B4607331B78110018008B
:10B80000FFF784FF031E0ED00E236B441A880E230D
:10B810006B4401321A800E226A4401AB12881B88E5
:10B820009A42E2D300E0C0460E226A4401AB12887D
:10B830001B889A4201D2002300E00123180005B0C2
:10B8400000BD00B585B0020000916B4607331A7049
:10B850000E236B4400221A80009B02936B46073331
:10B860001B78180000F0D2F8031E01D1002325E058
:10B870000E236B4400221A8017E00E236B441B88B2
:10B88000029AD3181A786B4607331B7811001800F8
:10B89000FFF73CFF031E01D100230FE00E236B4492
:10B8A0001A880E236B4401321A800E236B441B88C6
:10B8B000029AD3181B78002BDFD10123180005B0A2
:10B8C00000BD000000B587B0020000916B46073351
:10B8D0001A702B4B03936B4607331B785A1E294B68
:10B8E0009200D35802936B4607331B78180000F080
:10B8F0008DF8031E04D1009B00221A7000233CE047
:10B900000023059327E06B4607331B78002B0FD1EC
:10B91000039B1B79DBB21A002023134018D013239A
:10B920006B44039AD2791A70009B01221A7016E0B8
:10B93000029B1B79DBB21A002023134008D013238B
:10B940006B44029AD2791A70009B01221A7006E0A9
:10B95000059B01330593059B0B4A9342D3D9059B65
:10B96000094A934206D913236B44FF221A70009BA5
:10B9700000221A7013236B441B78180007B000BD17
:10B9800000A0064050DD0000BAFB000000B585B005
:10B9900002006B4607331A70194B03936B4607334B
:10B9A0001B785A1E174B9200D35802936B460733ED
:10B9B0001B78180000F02AF8031E1ED06B460733D0
:10B9C0001B78002B08D1039BDB78DBB220221343CA
:10B9D000DAB2039BDA7007E0029BDB78DBB220224D
:10B9E0001343DAB2029BDA706B4607331B78064AC0
:10B9F000D3561800FFF71EFD00E0C04605B000BD9D
:10BA000000A0064050DD00000C04002082B00200BF
:10BA10006B4607331A700123180002B0704700000C
:10BA200000B585B0FA23DA0000230093002301213A
:10BA30000020FFF775F9324B002201211800FFF7B3
:10BA40007FF8304B002201211800FFF779F8C0235E
:10BA50009B00012201211800FFF772F8002100204D
:10BA600000F0DEFD264B00211800FFF7E5F800236B
:10BA7000039303E0C046039B01330393039B224AD5
:10BA80009342F7DD1E4B01211800FFF7D5F8002384
:10BA9000039303E0C046039B01330393039B1A4ABD
:10BAA0009342F7DD362000F095FD002000F03CFDCC
:10BAB000B62000F08FFD0A2000F036FDA22000F035
:10BAC00033FD3A2000F086FD052000F02DFD112009
:10BAD00000F080FD0023039303E0C046039B013385
:10BAE0000393039B094A9342F7DD094B180000F0CA
:10BAF00011F8292000F06EFDC04605B000BDC0461B
:10BB00000203000001030000A7D202007F8B08009F
:10BB10003084000000B585B002006B4606331A8001
:10BB20004023FF33EF220021002000F090FD0E2380
:10BB30006B4400221A801BE003AB00221A800AE04B
:10BB40006B4606331B88180000F014FD03AB1A88FF
:10BB500003AB01321A8003AB1A884023FF339A42A9
:10BB6000EED90E236B441A880E236B4401321A80DF
:10BB70000E236B441B88EF2BDED9C04605B000BDF9
:10BB800010B582B00400080011006B460633221C79
:10BB90001A8001AB021C1A806B4602330A1C1A8001
:10BBA00001AB1C886B4606331A8801AB19886B46BB
:10BBB00006331888230000F04AFD6B4602331B88C9
:10BBC000180000F0D7FCC04602B010BD30B587B0F9
:10BBD00005000C00100019006B4606332A1C1A8061
:10BBE00001AB221C1A806B460333021C1A706B4691
:10BBF0000A1C1A80002305936B4603331B780493B9
:10BC00006B4603331B785B000322D31A0393CBE00C
:10BC1000049B9BB26A4606321288D31A98B2059BDF
:10BC20009BB201AA1288D31A99B26B461B881A00DC
:10BC3000FFF7A6FF049B9AB26B4606331B88D31806
:10BC400098B2059B9BB201AA1288D31A99B26B468F
:10BC50001B881A00FFF794FF059B9BB26A460632C9
:10BC60001288D31A98B2049B9AB201AB1B88D318DE
:10BC700099B26B461B881A00FFF782FF049B9BB2A8
:10BC80006A4606321288D31A98B2059B9BB201AA63
:10BC90001288D31A99B26B461B881A00FFF770FFFF
:10BCA000059B9BB26A4606321288D31A98B2049B4F
:10BCB0009BB201AA1288D31A99B26B461B881A004C
:10BCC000FFF75EFF049B9AB26B4606331B88D318BE
:10BCD00098B2059B9AB201AB1B88D31899B26B46F8
:10BCE0001B881A00FFF74CFF059B9AB26B46063380
:10BCF0001B88D31898B2049B9BB201AA1288D31A4E
:10BD000099B26B461B881A00FFF73AFF059B9AB25F
:10BD10006B4606331B88D31898B2049B9AB201ABCA
:10BD20001B88D31899B26B461B881A00FFF728FFAF
:10BD3000049B9BB26A4606321288D31A98B2059BBE
:10BD40009AB201AB1B88D31899B26B461B881A00B4
:10BD5000FFF716FF059B01330593039B002B06DAC3
:10BD6000059B9B000633039AD31803930AE0059AB8
:10BD7000049BD31A9B000A33039AD3180393049BA2
:10BD8000013B0493059B9AB26B4606331B88D3187C
:10BD900098B2049B9AB201AB1B88D31899B26B4638
:10BDA0001B881A00FFF7ECFE059A049B9A4200DC00
:10BDB0002EE7C04607B030BD30B585B005000C0099
:10BDC000100019006B4606332A1C1A8001AB221C96
:10BDD0001A806B460233021C1A806B460A1C1A80BA
:10BDE000089B02936B4606331B880F339AB201AB54
:10BDF0001B880F339CB201AB19886B460633188839
:10BE0000230000F024FC0E236B4400221A7032E061
:10BE10000F236B4400221A701EE0029B1B785BB25A
:10BE20001A000F236B441B781A41130001221340A0
:10BE300006D06B4602331B88180000F09BFB04E021
:10BE40006B461B88180000F095FB0F236B441A7893
:10BE50000F236B4401321A700F236B441B78072B9E
:10BE6000DBD9029B013302930E236B441A780E2315
:10BE70006B4401321A700E236B441B781F2BC7D9F9
:10BE8000C04605B030BD000030B589B005000C00DB
:10BE9000100019000E236B442A1C1A8003AB221CCD
:10BEA0001A800A236B44021C1A8002AB0A1C1A80F7
:10BEB0001D236B4400221A70FBE072B60C9B1B78AA
:10BEC0005BB21F2B00DC76E00C9B1B785BB27F2BF8
:10BED00000D170E07C4B06931D236B441B789BB212
:10BEE000DB009AB20E236B441B88D31898B21D2333
:10BEF0006B441B789BB2DB009AB20E236B441B8809
:10BF0000D3189BB207339AB203AB1B880F339CB292
:10BF100003AB1988230000F09AFB0C9B1B785BB2E3
:10BF2000203B1B011A00069B9B1806931E236B44A3
:10BF300000221A7032E01F236B4400221A701EE0A8
:10BF4000069B1B785BB21A001F236B441B781A41B7
:10BF500013000122134006D00A236B441B881800EB
:10BF600000F008FB04E002AB1B88180000F002FBA5
:10BF70001F236B441A781F236B4401321A701F234E
:10BF80006B441B78072BDBD9069B013306931E23DA
:10BF90006B441A781E236B4401321A701E236B44C3
:10BFA0001B780F2BC7D91D236B441A781D236B44B4
:10BFB00001321A7074E00C9B1B785BB27F2B6FD13F
:10BFC0001F236B4400221A705EE00C9B00229A56DD
:10BFD00017236B441A700C9B013300229A561623C8
:10BFE0006B441A701F236B441A78384913001B01E5
:10BFF0009B185B005A5615236B441A701F236B4421
:10C000001A78324913001B019B185B00CB180133CF
:10C0100000229A5605AB1A7017226A4415236B4406
:10C0200012781B789A4228D116226A4405AB1278FE
:10C030001B789A4221D11D236B441B789BB2DB00F5
:10C040009AB20E236B441B88D31898B21F236B44FB
:10C050001A7813001B019B185B001C4A9B180233C3
:10C0600002AA15880A226A44148803AA1188009338
:10C070002B002200FFF7A0FE0BE01F236B441A7871
:10C080001F236B4401321A701F236B441B78052B4E
:10C090009BD91D236B441A781D236B4401321A70FF
:10C0A0000C9B01330C931D236B441B781D2B07D86D
:10C0B00062B60C9B1B785BB2002B00D0FDE600E063
:10C0C000C046C04609B030BD58DD000058E300004E
:10C0D00030B587B005000C00100019000E236B442A
:10C0E0002A1C1A8003AB221C1A800A236B44021CF0
:10C0F0001A8002AB0A1C1A8005AB954A1A8002AB63
:10C100001C880A236B441A8803AB19880E236B44DE
:10C11000188805AB1B880093230000F0B6F91323A1
:10C120006B4402221A7005AB00221A8003AB1C88F4
:10C130000A236B441A8803AB19880E236B441888B2
:10C1400005AB1B880093230000F006F902AB1C88A6
:10C150000E236B441A8803AB19880E236B4418888E
:10C1600005AB1B880093230000F0F6F805AB002216
:10C170001A8002AB1C880A236B441A8803AB198807
:10C180000A236B44188805AB1B880093230000F03A
:10C19000E3F802AB1C880A236B441A8802AB1988A7
:10C1A0000E236B44188805AB1B880093230000F016
:10C1B000D3F817236B4401221A70BCE00AAB1B783A
:10C1C000002B01D1002200E0624A05AB1A80172340
:10C1D0006B441B789AB20E236B441B88D31898B219
:10C1E00017236B441B789AB203AB1B88D31899B200
:10C1F00017236B441B789BB20A226A441288D31A15
:10C200009CB217236B441B789AB203AB1B88D318DC
:10C210009AB205AB1B8800931300220000F09CF833
:10C2200017236B441B789AB20E236B441B88D318D8
:10C2300098B217236B441B789AB203AB1B88D318B0
:10C2400099B217236B441B789AB20E236B441B8858
:10C25000D3189CB217236B441B789BB202AA128896
:10C26000D31A9AB205AB1B8800931300220000F08A
:10C2700073F80AAB1B78002B01D1364A00E000228C
:10C2800005AB1A8017236B441B789BB20A226A44C1
:10C290001288D31A98B217236B441B789AB203AB57
:10C2A0001B88D31899B217236B441B789BB20A22C0
:10C2B0006A441288D31A9CB217236B441B789BB232
:10C2C00002AA1288D31A9AB205AB1B8800931300F6
:10C2D000220000F041F817236B441B789AB20E231A
:10C2E0006B441B88D31898B217236B441B789BB2FE
:10C2F00002AA1288D31A99B217236B441B789BB2F7
:10C300000A226A441288D31A9CB217236B441B7802
:10C310009BB202AA1288D31A9AB205AB1B8800936B
:10C320001300220000F018F817236B441A78172323
:10C330006B4401321A7017226A4413236B4412783B
:10C340001B789A4200D239E7C04607B030BDC046DC
:10C350003084FFFFFFFF000030B58DB005000C00FA
:10C36000100019006B4606332A1C1A8001AB221CF0
:10C370001A806B460233021C1A806B460A1C1A8014
:10C3800000230A93002309936B4602331A886B46F5
:10C3900006331B88D31A08936B461A8801AB1B8897
:10C3A000D31A07936B4606331B88039301AB1B8894
:10C3B0000293089B002B02DD012305930BE0089BF1
:10C3C000002B02D10023059305E001235B42059376
:10C3D000089B5B420893079B002B02DD012304931B
:10C3E0000BE0079B002B02D10023049305E00123FF
:10C3F0005B420493079B5B420793089A079B9A4210
:10C4000002DD089B069301E0079B06932E236B44F5
:10C4100000221A802FE0039B9BB2029A91B210AACD
:10C4200012881800FFF7ACFB0A9A089BD3180A93EE
:10C43000099A079BD31809930A9A069B9A4207DD2B
:10C440000A9A069BD31A0A93039A059BD31803935F
:10C45000099A069B9A4207DD099A069BD31A09930B
:10C46000029A049BD31802932E236B441A882E231E
:10C470006B4401321A802E236B441A88069B0133C9
:10C480009A42C8DDC0460DB030BD30B585B005005C
:10C490000C00100019006B4606332A1C1A8001ABF1
:10C4A000221C1A806B460233021C1A806B460A1C3F
:10C4B0001A806B461C886B4602331A8801AB1988B8
:10C4C0006B4606331888230000F0C1F80E236B4436
:10C4D00001AA12881A801DE003AB6A460632128850
:10C4E0001A8009E008AB1B88180000F043F803AB82
:10C4F0001A8803AB01321A8003AA6B4602331288F2
:10C500001B889A42EED90E236B441A880E236B4483
:10C5100001321A800E226A446B4612881B889A42A6
:10C52000DAD9C04605B030BD00B583B002006B4615
:10C5300007331A70FEF7E6FB0D4B01211800FEF7DA
:10C540007BFBC0239B0000211800FEF775FB6B46A8
:10C5500007331B7819000020FEF7D2FDC0239B0093
:10C5600001211800FEF768FBC04603B000BDC046BD
:10C570000103000000B583B002006B4606331A8049
:10C58000FEF7C0FB124B01211800FEF755FBC0233C
:10C590009B0000211800FEF74FFB6B4606331B88FB
:10C5A0001B0A9BB2DBB219000020FEF7A9FD6B4607
:10C5B00006331B88DBB219000020FEF7A1FDC02363
:10C5C0009B0001211800FEF737FBC04603B000BDF9
:10C5D0000103000000B583B002006B4607331A70F8
:10C5E000FEF790FB0D4B00211800FEF725FBC02342
:10C5F0009B0000211800FEF71FFB6B4607331B78DA
:10C6000019000020FEF77CFDC0239B0001211800CB
:10C61000FEF712FBC04603B000BDC0460103000098
