:1068000000180020596C0000A16C0000A16C000071
:106810000000000000000000000000000000000078
:10682000000000000000000000000000A16C00005B
:106830000000000000000000A16C00002DA9000075
:10684000A16C0000A16C0000A16C0000A16C000014
:10685000A16C0000A16C0000A16C0000A16C000004
:10686000A16C0000A16C0000A16C0000A16C0000F4
:10687000D1A70000A16C0000A16C0000A16C000079
:10688000A16C0000A16C0000A16C0000A16C0000D4
:10689000A16C0000A16C0000A16C0000A16C0000C4
:1068A000A16C0000A16C0000A16C0000A16C0000B4
:1068B000A16C0000A16C0000A16C0000A16C0000A4
:106C0000FFFFFFFFFFFFFFFFFFFFFFFFFEFFFFFF95
:106C100010B5064C2378002B07D1054B002B02D072
:106C2000044800E000BF0123237010BD10040020C1
:106C300000000000A0BF0000044B10B5002B03D0E3
:106C40000349044800E000BF10BDC046000000003A
:106C500014040020A0BF000072B601F047FC62B629
:106C60000A490B4A0B4B9B1A03DD043BC858D05012
:106C7000FBDC0949094A521A03DD00208850043A16
:106C8000FCDA02F0C5FB01F06BFD0000C8BF00009C
:106C90000004002010040020100400204008002000
:106CA00000B5C04600BDC046002243088B4274D3E5
:106CB00003098B425FD3030A8B4244D3030B8B42FD
:106CC00028D3030C8B420DD3FF22090212BA030C06
:106CD0008B4202D31212090265D0030B8B4219D3E7
:106CE00000E0090AC30B8B4201D3CB03C01A524107
:106CF000830B8B4201D38B03C01A5241430B8B424F
:106D000001D34B03C01A5241030B8B4201D30B0337
:106D1000C01A5241C30A8B4201D3CB02C01A52415E
:106D2000830A8B4201D38B02C01A5241430A8B4221
:106D300001D34B02C01A5241030A8B4201D30B020A
:106D4000C01A5241CDD2C3098B4201D3CB01C01A24
:106D5000524183098B4201D38B01C01A524143092E
:106D60008B4201D34B01C01A524103098B4201D31C
:106D70000B01C01A5241C3088B4201D3CB00C01A89
:106D8000524183088B4201D38B00C01A5241430801
:106D90008B4201D34B00C01A5241411A00D2014626
:106DA000524110467047FFE701B5002000F0F0F8AF
:106DB00002BDC0460029F7D076E7704703460B4373
:106DC0007FD4002243088B4274D303098B425FD3E4
:106DD000030A8B4244D3030B8B4228D3030C8B4210
:106DE0000DD3FF22090212BA030C8B4202D31212F6
:106DF000090265D0030B8B4219D300E0090AC30BCB
:106E00008B4201D3CB03C01A5241830B8B4201D377
:106E10008B03C01A5241430B8B4201D34B03C01A60
:106E20005241030B8B4201D30B03C01A5241C30AD8
:106E30008B4201D3CB02C01A5241830A8B4201D349
:106E40008B02C01A5241430A8B4201D34B02C01A33
:106E50005241030A8B4201D30B02C01A5241CDD2D8
:106E6000C3098B4201D3CB01C01A524183098B4223
:106E700001D38B01C01A524143098B4201D34B010C
:106E8000C01A524103098B4201D30B01C01A52416F
:106E9000C3088B4201D3CB00C01A524183088B42F6
:106EA00001D38B00C01A524143088B4201D34B00DF
:106EB000C01A5241411A00D2014652411046704751
:106EC0005DE0CA0F00D04942031000D34042534056
:106ED00000229C4603098B422DD3030A8B4212D316
:106EE000FC22890112BA030A8B420CD38901921148
:106EF0008B4208D3890192118B4204D389013AD085
:106F0000921100E08909C3098B4201D3CB01C01A59
:106F1000524183098B4201D38B01C01A524143096C
:106F20008B4201D34B01C01A524103098B4201D35A
:106F30000B01C01A5241C3088B4201D3CB00C01AC7
:106F4000524183088B4201D38B00C01A5241D9D2DF
:106F500043088B4201D34B00C01A5241411A00D260
:106F60000146634652415B10104601D34042002B5C
:106F700000D54942704763465B1000D3404201B5DB
:106F8000002000F005F802BD0029F8D016E7704790
:106F90007047C0468446101C62468C46191C6346E6
:106FA00000E0C0461FB500F0F1F9002801D400212F
:106FB000C8421FBD10B500F049F94042013010BD74
:106FC00010B500F0E3F9002801DB002010BD01201E
:106FD00010BDC04610B500F0D9F9002801DD002031
:106FE00010BD012010BDC04610B500F06BF900289F
:106FF00001DC002010BD012010BDC04610B500F01E
:1070000061F9002801DA002010BD012010BDC04642
:10701000002B11D1002A0FD1002900D1002802D065
:107020000021C943081C07B4024802A1401802907D
:1070300003BDC0465DFFFFFF03B4684601B502987B
:1070400000F042F8019B9E4602B00CBC7047C0465F
:1070500070B500220C4B04000D00FFF7CFFF002895
:1070600004D12000290000F0B3FF70BD064B0022C0
:107070002000290000F064FC00F0AAFF80231B061A
:107080009C466044F1E7C0460000E04170B5002234
:107090000B4B0D00040000F0E1F9FFF7D9FF0600EB
:1070A00000F0CCFF0022074B00F0D8F902000B00E3
:1070B0002000290000F044FCFFF7CAFF310070BD3A
:1070C0000000F03D0000F041F0B54F464646D64680
:1070D000C0B5040082B00D00914698468B422FD86F
:1070E0002CD04146484600F0F9FF29000600200058
:1070F00000F0F4FF331A9C46203B9A4600D576E018
:107100004B46524693401F004B46624693401E003A
:10711000AF4228D825D05346A41BBD41002B00DA2E
:107120007BE000220023009201930123524693400A
:107130000193012362469340009318E08242D0D924
:1071400000220023009201930A9B002B01D01C60B7
:107150005D600098019902B01CBC90469946A24619
:10716000F0BDA342D7D900220023009201936346C9
:10717000002BE9D0FB079846414672080A437B087A
:1071800066460EE0AB4201D1A2420CD8A41A9D4142
:10719000012024196D410021013E24184D41002E8B
:1071A00006D0AB42EED9013E24196D41002EF8D134
:1071B00000980199534600196941002B23DB2B00ED
:1071C0005246D3402A006446E2401C005346150054
:1071D000002B2DDB26005746BE40330026006746B5
:1071E000BE403200801A994100900191ACE762469E
:1071F00020239B1A4A46DA406146130042468A40E1
:1072000017001F4380E7624620239B1A2A00664628
:107210009A402300F3401343D4E762462023002121
:107220009B1A0022009101920122DA40019280E72C
:107230002023624626009B1ADE402F00B046664699
:10724000B74046463B003343C8E7C046F0B54F461B
:107250004646D6468446C0B58046194E18030F03ED
:107260004D00000B5C0082463F0B6D0DC90F91462F
:10727000640DDB0F0120B5420AD0B44203D0A54211
:1072800001D157450CD01CBC90469946A246F0BD92
:1072900066463E43F7D1AC42F5D154461443F2D191
:1072A0000120C845EFD1994207D0002DEBD16346AC
:1072B0001F433800471EB841E5E70020E3E7C0461A
:1072C000FF070000F0B54F464646D6464D00C0B514
:1072D0000E03C90F8A462C491F035C008046360BFB
:1072E0006D0D91463F0B640DDB0F8D421ED08C421D
:1072F00016D0002D1ED130438446002C01D13A43D4
:1073000023D06246002A1AD09A4529D0514602203D
:107310000139084001381CBC90469946A246F0BD90
:1073200039001143E5D002204042F4E73043FAD15E
:10733000AC420FD0002C0FD13A43E7D00CE0012231
:10734000013B934318000130E5E763460020002B22
:10735000E1D0DBE73A43E6D19A45D7D1A542D5DC67
:10736000A54205DBBE42D1D808D00020BE42D2D211
:1073700050460123013898430130CCE7C845C5D8B1
:107380000020C845F4D3C6E7FF070000F0B54F461C
:107390004646D6464D00C0B50E03C90F8A462E4953
:1073A0001F035C008046360B6D0D91463F0B640D4C
:1073B000DB0F8D4218D08C4211D0002D18D13043F4
:1073C0008446002C1ED13A431CD163460020002B7A
:1073D00030D0514602200139084001382AE03900F6
:1073E0001143EAD0022025E03043FBD1AC4226D045
:1073F000002C26D13A4324D15146022001390840BD
:10740000013817E06246002A0FD09A45E1D1A54223
:1074100005DBBE42DDD819D00020BE420AD250465C
:10742000012301389843013004E00122013B9343DA
:10743000180001301CBC90469946A246F0BD3A4364
:10744000D0D19A45C5D1A542C3DCE0E7C845C0D834
:107450000020C845E3D3EDE7FF070000F0B557462D
:10746000DE464E464546E0B5834606000F0348001B
:1074700087B092461D003F0B400DCC0F002800D175
:107480006FE0DE4B984238D08023FF001B041F437F
:10749000730F3B430193DA4B0027994600239B4629
:1074A000F60081442B0369001B0B52469846490D98
:1074B000ED0F002900D185E0D04B994200D173E057
:1074C0004346DA0080231B0413435246CC48520F34
:1074D00084461343524600206144D200894421006F
:1074E000694000918C46012149448A460F2F00D9FA
:1074F00090E0C449BF00CF59BF465B463B43019370
:1075000000D06AE102230827002681469B46C9E78E
:1075100032005846019B61460091022800D175E077
:10752000032800D1FEE1012800D02CE10023002730
:10753000002600253F032A0D3F0BB34812053A43AE
:1075400002401B051343009A5B00D1075B080B4305
:107550003000190007B03CBC90469946A246AB46A5
:10756000F0BD5B463B43019300D12FE1002F00D1DA
:10757000A5E1380000F094FD03000B3B1C2B00DD5F
:1075800096E11D22D31A5A460100DA405E460839B8
:107590008F4013008E403B4301939C4B00271B1AE6
:1075A000994600239B467DE7414653460B4393494A
:1075B0008C46E144002B00D01AE10222022017433E
:1075C00000228CE7134300D10DE14346002B00D18C
:1075D00081E1404600F064FD02000B3A1C2A00DD08
:1075E00072E10100434608398B4098461D239A1AE0
:1075F0005346D3401A004346134352468A404946F5
:10760000081A824989468144002068E77B4B00279D
:1076100000268EE7140C1204120C1100370C3604ED
:10762000350C794328008C462E0060436044834625
:1076300056432100300C804658467943404402911D
:10764000844506D98846802149028C46E04441465B
:1076500002913604010C360C00048B4681191E0C75
:107660001B041B0C0391190079438C4628007543B9
:107670006544A8465843050C45447743A94203D9BD
:10768000802149028C466744290C8C46390000044D
:10769000000C2D042D186144AB440591594604910A
:1076A00001990F043F0C080C3900514342439046A6
:1076B00002008C46090C8B4662437C4344445C4484
:1076C000A04503D98021490288464244210C8846BE
:1076D00061460904090C8C46390059434343704301
:1076E0007E430F0CF6182404BE19644442448C46B1
:1076F000B34203D980235B0298464044029B614613
:107700009846049B370443449B46AB45AD416B42CE
:107710000D0405992D0C8C467F196744FD18A84669
:107720005D462D19A542A44193466442A446C34434
:10773000DC448F42BF4198459B4193459241A4450B
:10774000A4415B427F421F43360C52426442BF1940
:107750002243BF18624638184302D20D03991343DF
:107760006A020A43501E82416146ED0D2A434E02D1
:107770003243D90100D4B3E001265008324002431D
:10778000DE0732435B08224C5444002C62DD510773
:1077900009D00F201040042805D0101D90429241BE
:1077A00052429B180200D90104D580241948E400F4
:1077B000034054441848844200DD27E75E075B021B
:1077C000D2081F0B630516435B0DB2E600239946F2
:1077D0000133042700269B4664E603230197814674
:1077E0000C279B465EE6012201201743002276E625
:1077F000032303201F43434671E6C046FF070000F2
:1078000001FCFFFF9CB70000FFFF0F800DFCFFFF96
:10781000FF030000FFFFFFFEFE070000002380279C
:1078200000933F030026434B83E6019B3200A446AE
:10783000584670E6AC466EE6802701993F03394210
:107840002DD03B422BD11F433F033F0B0095160029
:10785000384B6EE601252D1B382D00DD66E61F2D09
:1078600040DC35481C005044160082408440EE4005
:10787000501E824134431443EB40620709D00F226B
:107880002240042A05D02200141D94428041404227
:107890001B181A023ED501230027002649E680273F
:1078A000019B3F031F433F033F0B0094214B40E6E6
:1078B00003005A46283B9A40002601926DE658463E
:1078C00000F0EEFB203057E603005246283B9A407A
:1078D0001300002293E6504600F0E2FB20307BE6E6
:1078E000CA4650E71F201E004042041BE640202DE0
:1078F00003D0124C5444A3401A43501E82413243D9
:1079000007260027164009D00F200023104014003E
:107910000428B9D122005E075B021F0BD208164370
:10792000002306E680273F031F433F033F0B16005B
:10793000004BFEE5FF0700001E0400003E040000AF
:10794000F8B557464E464546DE460C000903E0B5FD
:10795000490A460F5F0031431E03DB0F760A9B4640
:10796000530F3343C84E6500C000E40FD2006D0DC5
:10797000A24681467F0D9C469046B74200D1B9E0B1
:107980005B46012673409B46EE1BA34500D183E076
:10799000002E63DD002F00D0B1E06346134300D119
:1079A00023E1731E002B00D0BAE1861A6346B04271
:1079B00080410125C91A4042091A0B0200D447E14F
:1079C00049024B0A98464346002B00D189E14046C4
:1079D00000F066FB0300083B1F2B00DD7CE120224A
:1079E0003000D21A4146D040994002009E400A43DE
:1079F0009D4200DD6AE15D1B6B1C1F2B00DD94E1E5
:107A0000202110003500C91A8E40DA408840DD4040
:107A1000711E8E4111000722284300250643324083
:107A2000002A09D00F233340042B05D0331DB34265
:107A3000B641764289191E000B0200D43DE26A1C51
:107A4000914B55056D0D9A4200D119E18F4AF60808
:107A50000A40570752023743120B9BE0002E00D01A
:107A6000C5E06E1C7605760D012E00DC48E1674608
:107A7000861ACB1BB042BF417F42B8461F00434627
:107A8000FF1A3B00B8461B0200D55FE137439AD18D
:107A900000220024002579E0002E00DCFAE0002F0F
:107AA00000D18DE0784B9D4267D0802367461B0450
:107AB0001F43BC46382E00DC52E1634613435A1E76
:107AC00093411E1886428041404209180B0200D49F
:107AD000BEE06D4B01359D4200D1D2E06B4A730888
:107AE0000A4001210E401E435108D30707221E43BE
:107AF000324095E71E00164300D045E740E7624B51
:107B00009D423AD0802367461B041F43BC46382E53
:107B100000DDEBE01F2E00DC3AE133006746203B3E
:107B2000DF403B00202E05D04027BF1B6646BE40ED
:107B3000324390464646721E96413343DAE0002BAC
:107B400000D114E26346134300D168E180234E075D
:107B5000C008C9081B030643194208D06046C00884
:107B6000184204D163460100D2085E071643F300B1
:107B70009946C900720F444D11434B46DE08424BF3
:107B80004F073743CA089D4200D16EE012036D05CE
:107B9000120B6D0D00211203130B0A0D12051A436F
:107BA0003B4B2D0513402B435B00E4075B0823434D
:107BB000380019003CBC90469946A246AB46F8BD39
:107BC0006346134311D0731E002B00D007E18618C3
:107BD0008642804161444042091801250B0237D595
:107BE00002257BE73E00614691463500C5E75C46CD
:107BF000002D00D0E1E00B000343F3D0731C00D153
:107C0000ACE1214B9F4200D13AE1F343382B00DD38
:107C10006FE11F2B00DD8CE120250E00ED1AAE4038
:107C2000B0460600AA46DE40454635432E0055467E
:107C3000D940A8406346451EA8415B1A9C46304384
:107C4000161AB242924163465242991A3D00B4E676
:107C500007223240002A00D0E4E60B4BF6084F071B
:107C60003743CA089D4200D090E73B00134300D140
:107C7000A6E180231B031A431203120B024D89E76E
:107C800015000022002785E7FF070000FFFF7FFFA8
:107C9000FFFF0F80002E00D0C7E06B1C5E05760D45
:107CA000012E00DCF0E0C84DAB4200D1B9E08518F0
:107CB0000A00854289416244494251180722CE0791
:107CC0006D082E43490832401D00A9E6BF49ED1A50
:107CD000114007223240A3E63200283882400026B5
:107CE00086E6300000F0DCF9203073E6634613438B
:107CF0005A1E9341C61AB04280414042091A5CE6BE
:107D00000E00674606431743002D5ED1002E00D0BB
:107D1000F3E0002F00D11EE15C46614691462CE75E
:107D2000A94FBE427BD01E00F1E610001F3DE84087
:107D3000202B03D04021CB1A9A401643731E9E413C
:107D40000722064332400021002583E7161A6346C6
:107D5000B2428041591A40420B1A98465C4632E6BC
:107D60001F2E00DDABE02027BB1B9A46634657461B
:107D7000BB40994613004F46F3401F433B00574614
:107D8000BA40571EBA4113436246F240891898E63A
:107D90002027BB1B9A4663465746BB4099461300B3
:107DA0004F46F3401F433B005746BA40571EBA4167
:107DB00013436246F240891A9CE7834B9F425FD08F
:107DC00080252D047342294320E7002E0CD1002F7B
:107DD00000D1D0E05C46614691467B4DCDE67A4FBE
:107DE000BE421CD01E0065E6002F18D0C0084E070A
:107DF00006438020C9080003014208D06346DC081E
:107E0000044204D12100DA46D2085E071643F3008B
:107E1000994601245346C900720F11431C406A4D14
:107E2000ABE61D0000220027B4E6002D59D10B005F
:107E3000034300D1D6E6731C00D1B2E0624B9F42EF
:107E40001ED0F343382B6FDC1F2B00DD97E020257D
:107E50000E00ED1AAE40B0460600AA46DE4045468A
:107E600035432E005546A840D940451EA8418C44B4
:107E70000643B61896429241514261443D0025E6C0
:107E80003D006146914678E60B000343002D00D08B
:107E900055E6002BF5D06346134300D16DE68618F6
:107EA0008642804161444042091800220B0200D4FE
:107EB000D0E6464B01351940B2E5B1465DE63300E8
:107EC0006746203BDF403B00202E05D04027BF1BEC
:107ED0006646BE40324390464646721E9641334344
:107EE000EFE5394B9F42CBD080252D0473422943C7
:107EF000A8E70843411E8841A2E6002F00D13CE6D6
:107F00006346861ACF1AB0429B415B42FB1A9846E1
:107F10001B024ED5161A6346B2429241591A52427A
:107F2000891A5C4600227BE501430E00711E8E41DA
:107F30009FE71D000E00203DEE40B046202B04D0F0
:107F40004025EB1A99400843814648464346411E66
:107F50008841184374E60022002417E6161A634687
:107F6000B2429241591A5242891A3D0025E56146B2
:107F70009146154D01E680220024120379E61D008A
:107F80000E00203DEE40B046202B04D04025EB1AD9
:107F90009940084381464E464346711E8E411E431A
:107FA00067E7861896429B4161445B42C9183D00D1
:107FB0008CE547463743CED007224146324049E65A
:107FC00000273A00E6E5C046FF070000FFFF7FFFFD
:107FD00030B5144D0A034B00120B5B0DC90F002482
:107FE000AB4211DD104CA34210DC80246403224319
:107FF0000E4CE41A1F2C0CDD0D48C31ADA40130096
:108000005C42002900D11C00200030BD094BCC1877
:10801000FAE7094DE040AC4663449A40130003433D
:10802000EEE7C046FE0300001D040000330400001C
:1080300013040000FFFFFF7FEDFBFFFF10B5041EE0
:1080400025D000F02DF8144B1B1A5B055B0D0A2898
:1080500012DD0B38844000222403240B0021100081
:1080600024030A0D240B120522430C4C1B0522404D
:1080700013435B00590810BD0200210015329140E6
:108080000A000B21081AC4402403240BE6E700234E
:1080900000240022E2E7C0461E040000FFFF0F801C
:1080A0001C2101231B04984201D3000C10391B0A28
:1080B000984201D3000A08391B09984201D30009EC
:1080C000043902A2105C40187047C0460403020243
:1080D00001010101000000000000000010B50029AE
:1080E00003D1FFF7DDFF203002E0081CFFF7D8FFC7
:1080F00010BDC04602780B78002A03D00130013150
:108100009A42F7D0D01A70470023C25C0133002A8C
:10811000FBD1581E704700B585B001900E236B440B
:1081200000221A8006E00E236B441A880E236B444B
:1081300001321A800E236B441B88019AD3181B78D6
:10814000002BF0D1019A0E236B441B8811001800FC
:1081500000F0FEF8C04605B000BD000010B584B0C8
:10816000020000916B4607331A70734B1B88002B7B
:1081700006D1724B1B786A46073212789A420AD1AE
:108180006D4B1B88012B11D16C4B5B786A46073213
:1081900012789A420AD0684B00221A80684B00225B
:1081A0001A800E236B4400221A80BEE0624B1B88AB
:1081B0005A1C91B2604A11801A00009B9B186A46B3
:1081C000073212781A705C4B1B88042B0DD1009B70
:1081D00002331B789BB21B029AB2009B03331B78BD
:1081E0009BB2D3189AB2564B1A80554B1B88002B62
:1081F00000D196E0504B1B881A00514B1B88083366
:108200009A4200DA8DE0009B1A1D4D4B1B880A2410
:108210006C441900100000F00DF9030023800A23BC
:108220006B441B881B0A9BB2DAB202AB1A700A239A
:108230006B441B88DAB202AB5A703F4B1B88023B7F
:10824000009AD3181A783F4B1B789A421DD13A4BAB
:108250001B88013B009AD3181A783A4B5B789A42F4
:1082600013D102AB1A78344B1B88043B0099CB180E
:108270001B789A4209D102AB5A782F4B1B88033BDB
:108280000099CB181B789A420AD02B4B00221A80F7
:108290002B4B00221A800E236B4400221A8044E0EC
:1082A00003AB00221A800FE003AB1B880433009A53
:1082B000D21803AB1B880099CB1812781A7003AB45
:1082C0001A8803AB01321A801D4B1B8803AA12883F
:1082D0009A42E9D3184B00221A800E236B44184AA5
:1082E00012881A80164B1B881A00009B9B180022CC
:1082F0001A70134B1B88152B0FD1134A009B1100CA
:108300001800FFF7F7FE031E07D1104B1800FFF708
:1083100002FF0E236B4400221A80094B00221A80B0
:1083200003E00E236B4400221A800E236B441B884B
:10833000180004B010BDC0462C040020000400202A
:108340002E04002004040020C8B50000E0B50000A1
:1083500010B584B0020000916B4606331A800E24DB
:108360006C446B4606331A88009B1100180000F01D
:1083700061F8030023802C4B1A782C4B1B781900D2
:10838000100001F027FA284B1A78284B5B78190067
:10839000100001F01FFA244B1A786B4606331B8835
:1083A0001B0A9BB2DBB21900100001F013FA1E4B3E
:1083B0001A786B4606331B88DBB21900100001F0F7
:1083C00009FA194B1878009A6B4606331B88190076
:1083D00001F056FA144B1A780E236B441B881B0AC3
:1083E0009BB2DBB21900100001F0F4F90E4B1A78C1
:1083F0000E236B441B88DBB21900100001F0EAF970
:10840000094B1A780A4B1B781900100001F0E2F9A9
:10841000054B1A78064B5B781900100001F0DAF969
:10842000C04604B010BDC046060400200004002071
:108430000404002084B001900A006B4602331A80C5
:108440000A236B44012252421A800E236B440022FD
:108450001A803BE00E236B441B88019AD3181B78CB
:1084600099B20A236B440A226A4412884A401A804D
:1084700003AB00221A801EE002AB0A226A44128873
:1084800001210A401A800A236B440A226A44128896
:1084900052081A8002AB1B88002B07D00A236B44BA
:1084A0000A226A44128810494A401A8003AB1A888B
:1084B00003AB01321A8003AB1B88072BDCD90E23D8
:1084C0006B441A880E236B4401321A800E226A44D0
:1084D0006B46023312881B889A42BBD30A236B4433
:1084E0001B88180004B0704701A0FFFF3B493C4ABD
:1084F000C0239B028B50394A3A4BD35837498022CC
:1085000092001343374A8B50374B9B78DBB21A00EB
:108510000823134007D0344B9B78DBB2324A082142
:108520000B43DBB293702D492D4A80235B028B50A5
:108530002A4A2E4BD35829492D4A13402B4A8B5097
:10854000264B1A68254B2B490A401A60234A274BB1
:10855000D358294A13402149802252041343234A05
:108560008B50264B06221A70244B5B78DBB2234AD1
:1085700040210B40DBB25370204BDB78DBB25BB2A7
:108580001F2213405BB26022524213435AB21B4B6C
:10859000D2B2DA701A4B00221A70184B00221A71EC
:1085A000164B00225A71C046144B9B79DBB21A005D
:1085B00010231340F8D0C046104B9B79DBB21A0051
:1085C0000C231340F8D1054A064BD3580349F8222F
:1085D00092011343034A8B50C04670470070044019
:1085E000441000003810000000D0074004100000C4
:1085F000FFFFFCFFFFFFF3FFFFFFFFFC0040064013
:108600000050064010B582B0020000916B4607335F
:108610001A706B4607331B787F2B36D9324A6B466C
:1086200007331B7819000F230B40083B9B080633C8
:108630009B00D31804331B686A4607321278110076
:1086400003220A40D200FF2191400A00D2431A407F
:108650001100009B9B01FF221A406B4607331B78D9
:10866000180003230340DB009A401F486B46073382
:108670001B781C000F232340083B9B080A4306334A
:108680009B00C31804331A602BE0184A6B4607336B
:108690001B785BB29B08C0339B009B586A4607322D
:1086A0001278110003220A40D200FF2191400A00F3
:1086B000D2431A401100009B9B01FF221A406B46D7
:1086C00007331B78180003230340DB009A40074858
:1086D0006B4607331B785BB29B080A43C0339B0091
:1086E0001A50C04602B010BD00ED00E000E100E00D
:1086F00000B583B002006B4607331A70164B002298
:108700001A60154B00229A606B4607331B78002BCA
:1087100003D16B4607330A221A70104B1A68FA23EA
:1087200099001000FEF7C0FA03001A006B460733E9
:108730001B785A43084B12095A6001235B420321FC
:108740001800FFF75FFF044B1A68034B03210A432D
:108750001A60C04603B000BD10E000E0080400202D
:1087600000B585B072B600F00BFC0A236B44012201
:108770001A70C94B00221A70C74B00225A70C64BA0
:1087800000229A7009236B44C34A92781A7001221E
:108790000121052000F022FB012201210D2000F023
:1087A0001DFB012201210C2000F018FB01F09CF9B7
:1087B0009F235A00002300931300EE22022102207F
:1087C00001F0EAFCB549F8231A02B54B00930B00FF
:1087D00014215C2001F0BCFBB049F8231A02B14B14
:1087E00000930B0028213C2001F0B2FB00230093F2
:1087F0007823EC225021022001F0CEFCA74AAA4B9C
:108800000093130000225C21062001F0A1FBE1236C
:108810005B021900002000F087FEE1235B021900D3
:10882000022000F081FEA14B1B685C331B68984757
:108830000A20FFF75DFF002001F00CF962B6039BF0
:1088400001330393039B9A4A934200D89EE200238C
:108850000393984B1B78012BF1D1904A964B0093D0
:108860001300002228213C2001F072FB934B1B785F
:10887000082B49D1924B93490322180002F092FE33
:10888000031E41D10021052000F024FB01210D2011
:1088900000F020FB01210C2000F01CFB7F4A8A4BDA
:1088A0000093130000225C21462001F051FB7B491C
:1088B000F8231A02854B00930B005C21462001F03F
:1088C00047FB0B236B441E221A7010E0F823190299
:1088D0000B236B441A780B00CD21782001F0DAF9D4
:1088E0000B236B440B226A441278023A1A700B2352
:1088F0006B441B78022BE9D8754B1900002001F05E
:1089000004F86C4B00221A706C4B1B78092B46D173
:108910006B4B70490422180002F044FE031E3ED146
:1089200000210D2000F0D6FA0121052000F0D2FA36
:1089300001210C2000F0CEFA584A634B009313003B
:1089400000225C21462001F003FB544A614B009356
:1089500013001F225C21462001F0FAFA0B236B441E
:108960001E221A700EE00B236B441A781F23CD21B0
:10897000782001F08FF90B236B440B226A441278A4
:10898000023A1A700B236B441B78022BEBD8524B24
:108990001900002000F0B9FF464B00221A70474B27
:1089A0001B780A2B49D1464B4C490522180002F08E
:1089B000F9FD031E41D100210C2000F08BFA0121AA
:1089C000052000F087FA01210D2000F083FA334AD8
:1089D0003D4B0093130000225C21462001F0B8FAC1
:1089E0002E49FC23DA003D4B00930B005C2146200E
:1089F00001F0AEFA0B236B441E221A7010E0FC2328
:108A0000D9000B236B441A780B00CD21782001F09C
:108A100041F90B236B440B226A441278023A1A7014
:108A20000B236B441B78022BE9D82D4B1900002037
:108A300000F06BFF1F4B00221A70204B1B78092B94
:108A400071D11F4B27490422180002F0ABFD031E11
:108A500069D100210D2000F03DFA00210C2000F02A
:108A600039FA0121052000F035FA0C4A164B009323
:108A7000130000225C21462001F06AFA07491A4AD5
:108A8000184B00930B005C21462001F061FA0B2388
:108A90006B441E221A7039E03C0400203084000030
:108AA000F8B5000004B6000018B600003404002039
:108AB000FFFF1F003804002020B600004004002003
:108AC0004104002034B6000038B6000044B600006F
:108AD0004CB6000058B6000060B600006CB600004E
:108AE00074B6000080B60000FF7F0000A8490B2389
:108AF0006B441A780B00CD21782001F0CBF80B23C2
:108B00006B440B226A441278023A1A700B236B44AE
:108B10001B78022BEAD89F4B1900002000F0F5FECD
:108B20009D4B00221A709D4B1B780B2B47D19C4B01
:108B30009C490622180002F035FD031E3FD100219A
:108B4000052000F0C7F900210D2000F0C3F9012134
:108B50000C2000F0BFF9944A944B009313000022BC
:108B60005C21462001F0F4F98F49914A8D4B009326
:108B70000B005C21462001F0EBF90B236B441E2215
:108B80001A700FE08A490B236B441A780B00CD2131
:108B9000782001F07FF80B236B440B226A44127893
:108BA000023A1A700B236B441B78022BEAD8814BD4
:108BB0001900002000F0A9FE774B00221A70774BB5
:108BC0001B780B2B47D1764B7B490622180002F00D
:108BD000E9FC031E3FD10021052000F07BF90021B4
:108BE0000C2000F077F901210D2000F073F96E4A96
:108BF0006E4B0093130000225C21462001F0A8F97F
:108C000069496E4A6C4B00930B005C21462001F0D1
:108C10009FF90B236B441E221A700FE067490B2348
:108C20006B441A780B00CD21782001F033F80B2328
:108C30006B440B226A441278023A1A700B236B447D
:108C40001B78022BEAD85E4B1900002000F05DFE75
:108C5000514B00221A70514B1B780A2B47D1504BB5
:108C600058490522180002F09DFC031E3FD1002147
:108C7000052000F02FF900210D2000F02BF9002134
:108C80000C2000F027F9484A484B009313000022BB
:108C90005C21462001F05CF943494B4A494B009363
:108CA0000B005C21462001F053F90B236B441E227C
:108CB0001A700FE044490B236B441A780B00CD2146
:108CC000782000F0E7FF0B236B440B226A441278F4
:108CD000023A1A700B236B441B78022BEAD83B4BE9
:108CE0001900002000F011FE2B4B00221A702B4BB4
:108CF0001B78082B00D0A2E5294B35490322180028
:108D000002F050FC031E00D099E50121052000F07F
:108D1000E1F801210D2000F0DDF801210C2000F028
:108D2000D9F8214A214B0093130000225C214620F0
:108D300001F00EF91C4A274B0093130000225C211E
:108D4000462001F005F90B236B441E221A700FE038
:108D500015490B236B441A780B00CD21782000F0C5
:108D600099FF0B236B440B226A441278023A1A7063
:108D70000B236B441B78022BEAD8174B19000020F9
:108D800000F0C3FD044B00221A7058E5C04656E5BA
:108D9000FF7F000088B60000380400204004002057
:108DA00041040020A0B600003084000038B6000066
:108DB0001FF80000A8B60000C0B60000E0FF0000E9
:108DC000C8B60000E0B60000FFFF0000E8B60000F3
:108DD00000B7000004B7000010B7000010B586B05F
:108DE0000400080011006B460633221C1A806B46F3
:108DF0000533021C1A7001AB0A1C1A700E226A4459
:108E00000F2169446B4606331B88180000F0A0F858
:108E10000F236B441B781A002B4B9200D3580593F9
:108E20000F236B441B781A00284B9200D3580493ED
:108E30000E236B441B781A00059B9200D3580E2218
:108E40006A4412781000224A13401900059B8200E0
:108E5000D1500E236B441B781A00059B9200D35807
:108E60000E226A4412781000802252001A43110028
:108E7000059B8200D1506B4605331B78012B14D122
:108E8000049B5B690E226A441278110001228A4019
:108E90001A43049B5A6101AB1A786B4606331B8850
:108EA0001100180000F016F80BE0049B5B690E221D
:108EB0006A441278110001228A40D2431A40049B6E
:108EC0005A61C04606B010BDDCB70000F0B7000024
:108ED000FFF8FFFF00B585B002006B4606331A802D
:108EE0006B4605330A1C1A700A226A440B21694436
:108EF0006B4606331B88180000F02AF80B236B44DE
:108F00001B781A00114B9200D35803936B4605331C
:108F10001B78012B0BD1039B1B680A226A44127831
:108F2000110001228A401A43039B1A600BE0039B45
:108F30001B680A226A441278110001228A40D24337
:108F40001A40039B1A60C04605B000BDF0B7000090
:108F500084B0029101920E236B44021C1A800E23EE
:108F60006B441B881B0A9BB2DAB2029B1A700E2359
:108F70006B441B88DAB2019B1A70C04604B070477C
:108F8000064A88235B01D35804490C2293431A00F4
:108F900088235B01CA50C0467047C0460070044039
:108FA000044A054B5521D150024A034BAA21D15006
:108FB000C0467047007004400411000030B585B011
:108FC00005000C00100019006B4607332A1C1A70AC
:108FD0006B460633221C1A7001AB021C1A806B46CA
:108FE00003330A1C1A706B4607331B78012B03D915
:108FF0006B46073300221A706B4607331B78002B31
:1090000000D0DCE0DE4ADF4BD358DD498022D203BA
:109010001343DC4A8B50DC4B802292001A61DA4BFE
:10902000802292005A61D84B802292009A61D64BDE
:1090300080229200DA61FFF7B3FFD44B0022DA708E
:10904000D24BDB78DBB2D14A40210B43DBB2D37089
:109050006B4606331B78012B08D1CC4BDB78DBB297
:10906000CA4A10210B43DBB2D37008E0C74BDB7850
:10907000DBB2C649802252421343DBB2CB706B464F
:1090800003331B78002B08D1C04BDB78DBB2BF4A1F
:1090900008218B43DBB2D37007E0BC4BDB78DBB23B
:1090A000BA4A08210B43DBB2D37008AB1B78002B04
:1090B00008D1B64BDB78DBB2B44A04218B43DBB278
:1090C000D37007E0B14BDB78DBB2B04A04210B432D
:1090D000DBB2D370FFF764FFAC4BDB78DBB2AB4A9B
:1090E00002210B43DBB2D370A84B00229A706B466F
:1090F00006331B78012B07D1A44B9B78DBB2A34A24
:1091000010210B43DBB29370A04B00225A700D2349
:109110006B4400221A700E236B4400221A7001ABBC
:109120001B8819009A48FDF749FE03001A000F2317
:109130006B441A70FFF734FF0F236B441B78082B26
:1091400019D80F236B441B78013BDBB28F4A1B01FC
:10915000DBB2537011E1FFF723FF0E236B441A7843
:109160000E236B4401321A700F236B440F226A44A2
:10917000127852081A700F236B441B78112BEAD80F
:109180000F236B440F226A441278013A1A700D23A0
:109190006B440F226A4412781A707C4A0D236B4488
:1091A0001B781B01DBB25370784B5B78DAB27749DE
:1091B0000E236B441B781343DBB24B70DDE0FFF7EB
:1091C000EFFE6F4A6F4BD3586D4980221204134350
:1091D0006C4A8B506F4B802292001A616D4B80223B
:1091E00092005A616B4B802292009A61694B8022F7
:1091F0009200DA61FFF7D4FE674B0022DA70664B0B
:10920000DB78DBB2644A40210B43DBB2D3706B46A0
:1092100006331B78012B08D15F4BDB78DBB25E4A4B
:1092200010210B43DBB2D37008E05B4BDB78DBB281
:109230005949802252421343DBB2CB706B46033351
:109240001B78002B08D1544BDB78DBB2524A082143
:109250008B43DBB2D37007E04F4BDB78DBB24E4A77
:1092600008210B43DBB2D37008AB1B78002B08D16D
:10927000494BDB78DBB2484A04218B43DBB2D37025
:1092800007E0454BDB78DBB2434A04210B43DBB2FA
:10929000D370FFF785FE404BDB78DBB23E4A0221FC
:1092A0000B43DBB2D3703C4B00229A706B46063303
:1092B0001B78012B07D1384B9B78DBB2364A102143
:1092C0000B43DBB29370344B00225A700D236B4476
:1092D00000221A700E236B4400221A7001AB1B8807
:1092E00019002B48FDF76AFD03001A000F236B4499
:1092F0001A70FFF755FE0F236B441B78082B19D803
:109300000F236B441B78013BDBB2204A1B01DBB20D
:10931000537032E0FFF744FE0E236B441A780E239D
:109320006B4401321A700F236B440F226A44127887
:1093300052081A700F236B441B78112BEAD80F23A5
:109340006B440F226A441278013A1A700D236B4461
:109350000F226A4412781A700C4A0D236B441B7852
:109360001B01DBB25370094B5B78DAB207490E235D
:109370006B441B781343DBB24B70C04605B030BD65
:10938000007004403410000000B00440006007404A
:10939000C05D000000C004400070074084B00200BF
:1093A0006B4607331A706B4606330A1C1A706B46FD
:1093B00007331B78144A944663441B030293C04648
:1093C000029B1B78DBB21A0020231340F8D0029BCB
:1093D0006A46063212789A71002303930BE0029BCF
:1093E0001B78DBB21A002023134001D0012307E0D1
:1093F000039B01330393039B044A9342EFD9002359
:10940000180004B07047C04676000400EFFF00006B
:1094100010B5354CA5440023FFAA08321360334B26
:109420009822D2011A60314B1B6870331B681C00F4
:109430008023DA00D023D90101AB1800A0472C4BC0
:10944000FFAA0C32944663449A6FFFAB08331B6843
:1094500078331B689A420DD1254BFFAA0C329446F3
:1094600063448C229A58FFAB08331B688C331B680B
:109470009A422AD01D4B1B6860331B681A209847FC
:10948000FFAB08331B6878331B681A00184BFFA921
:109490000C318C4663449A67FFAB08331B688C33EE
:1094A0001B681900124BFFAA0C32944663448C22AD
:1094B00099500E4B1B6868331B681C0001AA80235F
:1094C000D900D023DB011800A0470A4BD022D201DB
:1094D0009A60094B180002F03FF8FFF761FDC046A3
:1094E0008123DB009D4410BDF8FBFFFF3404002006
:1094F000FCFBFFFF00ED00E018B7000082B00200A7
:109500006B4607331A706B4607331B781A001F230C
:109510001A40044B012191400A001A60C04602B073
:109520007047C04600E100E000B587B0020000913E
:109530006B4607331A709F4B03936B4607331B78B8
:10954000180000F0C7FA031E00D12FE16B46073365
:109550001B78002B00D099E0974A984BD358964936
:109560008022D2041343954A8B50934A934BD3588D
:109570009149934A1340914A8B50924B1A6D914BEB
:109580008021C9000A431A658E4B5A6D8D4B80218C
:10959000C9000A435A65C046874A8B4BD35886494F
:1095A0008022D2001343884A8B50039BDB78DBB2C6
:1095B0000C229343DAB2039BDA70844B1A68FA23C5
:1095C00099001000FDF770FB03001A0013005B0107
:1095D0009B1A9B009B18DB001A00009B1B011900C3
:1095E0001000FDF761FB03001A0012236B441A8080
:1095F000039B1B78DAB211236B441F218A431A7034
:1096000012236B441B881B12DBB21F221340DAB2F9
:1096100011236B441B781343DAB2039B1A70122395
:109620006B441B88DAB2039B5A70039B0F229A7219
:10963000039B00229A70039B00229A71039B0022D5
:109640001A72039B00225A72039B1B79DBB21F2202
:109650001343DAB2039B1A71039B5B79DBB240229E
:1096600052421343DAB2039B5A71039BDB78DBB29D
:109670007F221340DAB2039BDA70039BDB78DBB204
:109680000C221343DAB2039BDA7090E06B46073387
:109690001B78012B02D0022B13D025E0494BC022AE
:1096A00092001A60474BC02292005A60C046424A5C
:1096B000454BD3584049802212011343424A8B50F4
:1096C00012E0404BC02292001A643E4BC02292002E
:1096D0005A64C046384A3C4BD3583749802252011D
:1096E0001343394A8B50C0466B4607331B785A1ECA
:1096F000374B9200D3580593059BDB78DBB20C22E5
:109700009343DAB2059BDA70304B1A68FA23D9001A
:109710001000FDF7C9FA03001A0013005B019B1A41
:109720009B009B18DB001A00009B1B011900100016
:10973000FDF7BAFA03001A0012236B441A80059B46
:109740001B78DAB211236B441F218A431A7012234B
:109750006B441B881B12DBB21F221340DAB21123A9
:109760006B441B781343DAB2059B1A7012236B44C7
:109770001B88DAB2059B5A70059B00229A70059BE4
:1097800000229A71059B00225A71059BDB78DBB29F
:109790007F221340DAB2059BDA70059BDB78DBB2DF
:1097A0000C221343DAB2059BDA7000E0C04607B022
:1097B00000BDC04600A00640007004400410000038
:1097C000FFFFFEFF00D0044034100000080400201A
:1097D00004B8000000B587B002006B4607331A706A
:1097E0006B4606330A1C1A70224B04936B460733F0
:1097F0001B785A1E204B9200D35803936B460733B5
:109800001B78180000F066F9031E01D100232DE03B
:10981000002305931FE06B4607331B78002B0BD109
:10982000049B1B79DBB25BB2002B11DA049B6A4606
:1098300006321278DA7112E0039B1B79DBB25BB25D
:10984000002B05DA039B6A4606321278DA7106E0CD
:10985000059B01330593059B084A9342DBD9059B81
:10986000064A934201D9002300E00123180007B003
:1098700000BDC04600A0064004B80000BAFB0000CE
:1098800000B585B000926B460733021C1A7001AB1D
:109890000A1C1A806B4607331B78180000F01AF96F
:1098A000031E01D100232DE00E236B4400221A80F9
:1098B00015E00E236B441B88009AD3181A786B4668
:1098C00007331B7811001800FFF784FF031E0ED02A
:1098D0000E236B441A880E236B4401321A800E2229
:1098E0006A4401AB12881B889A42E2D300E0C0466A
:1098F0000E226A4401AB12881B889A4201D20023CF
:1099000000E00123180005B000BD00B585B00200DD
:1099100000916B4607331A700E236B4400221A80A5
:10992000009B02936B4607331B78180000F0D2F8B7
:10993000031E01D1002325E00E236B4400221A8070
:1099400017E00E236B441B88029AD3181A786B46D3
:1099500007331B7811001800FFF73CFF031E01D1ED
:1099600000230FE00E236B441A880E236B44013250
:109970001A800E236B441B88029AD3181B78002B85
:10998000DFD10123180005B000BD000000B587B08D
:10999000020000916B4607331A702B4B03936B4602
:1099A00007331B785A1E294B9200D35802936B46FB
:1099B00007331B78180000F08DF8031E04D1009BBC
:1099C00000221A7000233CE00023059327E06B4639
:1099D00007331B78002B0FD1039B1B79DBB21A00D6
:1099E0002023134018D013236B44039AD2791A70A2
:1099F000009B01221A7016E0029B1B79DBB21A0051
:109A00002023134008D013236B44029AD2791A7092
:109A1000009B01221A7006E0059B01330593059B0C
:109A20000B4A9342D3D9059B094A934206D9132383
:109A30006B44FF221A70009B00221A7013236B44A0
:109A40001B78180007B000BD00A0064004B8000055
:109A5000BAFB000000B585B002006B4607331A70F0
:109A6000194B03936B4607331B785A1E174B920012
:109A7000D35802936B4607331B78180000F02AF87E
:109A8000031E1ED06B4607331B78002B08D1039BA7
:109A9000DB78DBB220221343DAB2039BDA7007E0F3
:109AA000029BDB78DBB220221343DAB2029BDA702E
:109AB0006B4607331B78064AD3561800FFF71EFD86
:109AC00000E0C04605B000BD00A0064004B800009C
:109AD0000C04002082B002006B4607331A70012389
:109AE000180002B07047000000B585B0FA23DA0014
:109AF00000230093002301210020FFF75FFA324B7F
:109B0000002201211800FFF769F9304B00220121E2
:109B10001800FFF763F9C0239B0001220121180000
:109B2000FFF75CF90021002000F0DEFD264B00214C
:109B30001800FFF7CFF90023039303E0C046039B0F
:109B400001330393039B224A9342F7DD1E4B01210D
:109B50001800FFF7BFF90023039303E0C046039BFF
:109B600001330393039B1A4A9342F7DD362000F03A
:109B700095FD002000F03CFDB62000F08FFD0A208E
:109B800000F036FDA22000F033FD3A2000F086FD03
:109B9000052000F02DFD112000F080FD002303932F
:109BA00003E0C046039B01330393039B094A93429E
:109BB000F7DD094B180000F011F8292000F06EFDC8
:109BC000C04605B000BDC04602030000010300000E
:109BD000A7D202007F8B08003084000000B585B05A
:109BE00002006B4606331A804023FF33EF22002128
:109BF000002000F090FD0E236B4400221A801BE031
:109C000003AB00221A800AE06B4606331B8818005B
:109C100000F014FD03AB1A8803AB01321A8003ABCA
:109C20001A884023FF339A42EED90E236B441A88D8
:109C30000E236B4401321A800E236B441B88EF2BDA
:109C4000DED9C04605B000BD10B582B004000800E2
:109C500011006B460633221C1A8001AB021C1A80CD
:109C60006B4602330A1C1A8001AB1C886B46063314
:109C70001A8801AB19886B4606331888230000F058
:109C80004AFD6B4602331B88180000F0D7FCC04623
:109C900002B010BD30B587B005000C0010001900EF
:109CA0006B4606332A1C1A8001AB221C1A806B46B5
:109CB0000333021C1A706B460A1C1A80002305939A
:109CC0006B4603331B7804936B4603331B785B00AE
:109CD0000322D31A0393CBE0049B9BB26A4606325D
:109CE0001288D31A98B2059B9BB201AA1288D31A84
:109CF00099B26B461B881A00FFF7A6FF049B9AB225
:109D00006B4606331B88D31898B2059B9BB201AAF9
:109D10001288D31A99B26B461B881A00FFF794FF7A
:109D2000059B9BB26A4606321288D31A98B2049BEE
:109D30009AB201AB1B88D31899B26B461B881A00E4
:109D4000FFF782FF049B9BB26A4606321288D31A41
:109D500098B2059B9BB201AA1288D31A99B26B469E
:109D60001B881A00FFF770FF059B9BB26A460632FC
:109D70001288D31A98B2049B9BB201AA1288D31AF4
:109D800099B26B461B881A00FFF75EFF049B9AB2DC
:109D90006B4606331B88D31898B2059B9AB201AB69
:109DA0001B88D31899B26B461B881A00FFF74CFF2B
:109DB000059B9AB26B4606331B88D31898B2049B56
:109DC0009BB201AA1288D31A99B26B461B881A005B
:109DD000FFF73AFF059B9AB26B4606331B88D318F0
:109DE00098B2049B9AB201AB1B88D31899B26B4608
:109DF0001B881A00FFF728FF049B9BB26A460632B5
:109E00001288D31A98B2059B9AB201AB1B88D3185B
:109E100099B26B461B881A00FFF716FF059B0133AA
:109E20000593039B002B06DA059B9B000633039AE0
:109E3000D31803930AE0059A049BD31A9B000A33B4
:109E4000039AD3180393049B013B0493059B9AB296
:109E50006B4606331B88D31898B2049B9AB201ABA9
:109E60001B88D31899B26B461B881A00FFF7ECFECB
:109E7000059A049B9A4200DC2EE7C04607B030BD2D
:109E800030B585B005000C00100019006B46063394
:109E90002A1C1A8001AB221C1A806B460233021C5A
:109EA0001A806B460A1C1A80089B02936B46063385
:109EB0001B880F339AB201AB1B880F339CB201ABE6
:109EC00019886B4606331888230000F024FC0E2303
:109ED0006B4400221A7032E00F236B4400221A7088
:109EE0001EE0029B1B785BB21A000F236B441B78A9
:109EF0001A4113000122134006D06B4602331B881F
:109F0000180000F09BFB04E06B461B88180000F073
:109F100095FB0F236B441A780F236B4401321A70A0
:109F20000F236B441B78072BDBD9029B0133029371
:109F30000E236B441A780E236B4401321A700E23E1
:109F40006B441B781F2BC7D9C04605B030BD00003D
:109F500030B589B005000C00100019000E236B44C9
:109F60002A1C1A8003AB221C1A800A236B44021C91
:109F70001A8002AB0A1C1A801D236B4400221A703F
:109F8000FBE072B60C9B1B785BB21F2B00DC76E00B
:109F90000C9B1B785BB27F2B00D170E07C4B06934F
:109FA0001D236B441B789BB2DB009AB20E236B44DB
:109FB0001B88D31898B21D236B441B789BB2DB001F
:109FC0009AB20E236B441B88D3189BB207339AB204
:109FD00003AB1B880F339CB203AB1988230000F03E
:109FE0009AFB0C9B1B785BB2203B1B011A00069B63
:109FF0009B1806931E236B4400221A7032E01F2325
:10A000006B4400221A701EE0069B1B785BB21A009C
:10A010001F236B441B781A4113000122134006D002
:10A020000A236B441B88180000F008FB04E002AB15
:10A030001B88180000F002FB1F236B441A781F23B3
:10A040006B4401321A701F236B441B78072BDBD93A
:10A05000069B013306931E236B441A781E236B4420
:10A0600001321A701E236B441B780F2BC7D91D2396
:10A070006B441A781D236B4401321A7074E00C9BF8
:10A080001B785BB27F2B6FD11F236B4400221A70A9
:10A090005EE00C9B00229A5617236B441A700C9BAF
:10A0A000013300229A5616236B441A701F236B4407
:10A0B0001A78384913001B019B185B005A56152368
:10A0C0006B441A701F236B441A78324913001B012A
:10A0D0009B185B00CB18013300229A5605AB1A700F
:10A0E00017226A4415236B4412781B789A4228D1B0
:10A0F00016226A4405AB12781B789A4221D11D239F
:10A100006B441B789BB2DB009AB20E236B441B8816
:10A11000D31898B21F236B441A7813001B019B18A5
:10A120005B001C4A9B18023302AA15880A226A4463
:10A13000148803AA118800932B002200FFF7A0FEC9
:10A140000BE01F236B441A781F236B4401321A70F3
:10A150001F236B441B78052B9BD91D236B441A7856
:10A160001D236B4401321A700C9B01330C931D2389
:10A170006B441B781D2B07D862B60C9B1B785BB217
:10A18000002B00D0FDE600E0C046C04609B030BD5F
:10A190000CB800000CBE000030B587B005000C0004
:10A1A000100019000E236B442A1C1A8003AB221CDA
:10A1B0001A800A236B44021C1A8002AB0A1C1A8004
:10A1C00005AB954A1A8002AB1C880A236B441A8897
:10A1D00003AB19880E236B44188805AB1B880093CA
:10A1E000230000F0B6F913236B4402221A7005AB6A
:10A1F00000221A8003AB1C880A236B441A8803AB25
:10A2000019880E236B44188805AB1B880093230024
:10A2100000F006F902AB1C880E236B441A8803ABCE
:10A2200019880E236B44188805AB1B880093230004
:10A2300000F0F6F805AB00221A8002AB1C880A2356
:10A240006B441A8803AB19880A236B44188805AB42
:10A250001B880093230000F0E3F802AB1C880A235C
:10A260006B441A8802AB19880E236B44188805AB1F
:10A270001B880093230000F0D3F817236B440122BE
:10A280001A70BCE00AAB1B78002B01D1002200E061
:10A29000624A05AB1A8017236B441B789AB20E23CF
:10A2A0006B441B88D31898B217236B441B789AB25F
:10A2B00003AB1B88D31899B217236B441B789BB24E
:10A2C0000A226A441288D31A9CB217236B441B7863
:10A2D0009AB203AB1B88D3189AB205AB1B880093C4
:10A2E0001300220000F09CF817236B441B789AB2ED
:10A2F0000E236B441B88D31898B217236B441B782A
:10A300009AB203AB1B88D31899B217236B441B78FE
:10A310009AB20E236B441B88D3189CB217236B444C
:10A320001B789BB202AA1288D31A9AB205AB1B887B
:10A3300000931300220000F073F80AAB1B78002B87
:10A3400001D1364A00E0002205AB1A8017236B4486
:10A350001B789BB20A226A441288D31A98B2172338
:10A360006B441B789AB203AB1B88D31899B217239E
:10A370006B441B789BB20A226A441288D31A9CB29F
:10A3800017236B441B789BB202AA1288D31A9AB285
:10A3900005AB1B8800931300220000F041F817233F
:10A3A0006B441B789AB20E236B441B88D31898B267
:10A3B00017236B441B789BB202AA1288D31A99B256
:10A3C00017236B441B789BB20A226A441288D31A63
:10A3D0009CB217236B441B789BB202AA1288D31A33
:10A3E0009AB205AB1B8800931300220000F018F806
:10A3F00017236B441A7817236B4401321A70172203
:10A400006A4413236B4412781B789A4200D239E7CE
:10A41000C04607B030BDC0463084FFFFFFFF0000DC
:10A4200030B58DB005000C00100019006B460633E6
:10A430002A1C1A8001AB221C1A806B460233021CB4
:10A440001A806B460A1C1A8000230A930023099382
:10A450006B4602331A886B4606331B88D31A08935F
:10A460006B461A8801AB1B88D31A07936B460633D9
:10A470001B88039301AB1B880293089B002B02DD12
:10A48000012305930BE0089B002B02D100230593C9
:10A4900005E001235B420593089B5B420893079B01
:10A4A000002B02DD012304930BE0079B002B02D15C
:10A4B0000023049305E001235B420493079B5B4266
:10A4C0000793089A079B9A4202DD089B069301E0D6
:10A4D000079B06932E236B4400221A802FE0039BD8
:10A4E0009BB2029A91B210AA12881800FFF7ACFB37
:10A4F0000A9A089BD3180A93099A079BD3180993C1
:10A500000A9A069B9A4207DD0A9A069BD31A0A9377
:10A51000039A059BD3180393099A069B9A4207DD79
:10A52000099A069BD31A0993029A049BD3180293A3
:10A530002E236B441A882E236B4401321A802E235B
:10A540006B441A88069B01339A42C8DDC0460DB0A1
:10A5500030BD30B585B005000C00100019006B4609
:10A5600006332A1C1A8001AB221C1A806B46023368
:10A57000021C1A806B460A1C1A806B461C886B46AC
:10A5800002331A8801AB19886B46063318882300FA
:10A5900000F0C1F80E236B4401AA12881A801DE056
:10A5A00003AB6A46063212881A8009E008AB1B88A2
:10A5B000180000F043F803AB1A8803AB01321A808D
:10A5C00003AA6B46023312881B889A42EED90E23E7
:10A5D0006B441A880E236B4401321A800E226A449F
:10A5E0006B4612881B889A42DAD9C04605B030BD46
:10A5F00000B583B002006B4607331A70FEF7D0FC3B
:10A600000D4B01211800FEF765FCC0239B000021C3
:10A610001800FEF75FFC6B4607331B78190000201B
:10A62000FEF7BCFEC0239B0001211800FEF752FC80
:10A63000C04603B000BDC0460103000000B583B0B2
:10A6400002006B4606331A80FEF7AAFC124B01216A
:10A650001800FEF73FFCC0239B0000211800FEF706
:10A6600039FC6B4606331B881B0A9BB2DBB2190010
:10A670000020FEF793FE6B4606331B88DBB2190001
:10A680000020FEF78BFEC0239B0001211800FEF77F
:10A6900021FCC04603B000BD0103000000B583B03B
:10A6A00002006B4607331A70FEF77AFC0D4B00214F
:10A6B0001800FEF70FFCC0239B0000211800FEF7D6
:10A6C00009FC6B4607331B7819000020FEF766FE75
:10A6D000C0239B0001211800FEF7FCFBC04603B01D
:10A6E00000BDC0460103000000B583B002006B4608
:10A6F00007331A7001AB0A1C1A806B4607331B78AC
:10A700001800FFF7CBFF01AB1B881800FFF796FF7F
:10A71000C04603B000BD30B583B005000C0010008A
:10A7200019006B4606332A1C1A8001AB221C1A80C2
:10A730006B460233021C1A806B460A1C1A802A20C0
:10A74000FFF7ACFF6B4606331B881B0A9BB2DBB2DC
:10A750001800FFF74DFF6B4606331B88DBB218006D
:10A76000FFF746FF6B4602331B881B0A9BB2DBB226
:10A770001800FFF73DFF6B4602331B88DBB2180061
:10A78000FFF736FF2B20FFF789FF01AB1B881B0A61
:10A790009BB2DBB21800FFF72BFF01AB1B88DBB2CB
:10A7A0001800FFF725FF6B461B881B0A9BB2DBB224
:10A7B0001800FFF71DFF6B461B88DBB21800FFF780
:10A7C00017FF2C20FFF76AFFC04603B030BD000022
:10A7D00010B5464CA54472B6454C6C44454B6B4491
:10A7E00019000020FFF7D2F803002370414B6B449F
:10A7F0001B78002B06D03E4B6B441B7819000020C1
:10A80000FEF7E8FF3B4B6B441B78002B60D03A4AC5
:10A81000374B6B441B7811001800FDF79FFC0300B9
:10A82000DAB2364B1A70354B1B78002B52D0324BB4
:10A830001B78082B0AD1324B32490322180000F052
:10A84000B1FE031E02D1304B01221A702A4B1B7835
:10A850000A2B1ED12A4B2D490522180000F0A2FE1A
:10A86000031E16D12A4B19000020FFF74EF8294A83
:10A87000294B00931300002228213C20FFF768FB9E
:10A880002449264A264B00930B0028213C20FFF741
:10A890005FFB194B1B78072B1ED1194B2149022254
:10A8A000180000F07FFE031E16D11A4A1A4B0093BF
:10A8B0001300002228213C20FFF74AFB1549174AC4
:10A8C000194B00930B0028213C20FFF741FB04E0CB
:10A8D000C04602E0C04600E0C046084B00221A70A5
:10A8E00062B6C04681231B019D4410BDF0F7FFFFF7
:10A8F0000F0800000E080000400400203F04002064
:10A900004104002040B700003804002044B7000094
:10A910004CB70000308400005CB70000E0FF00008E
:10A9200074B7000088B700008CB7000010B50A4B60
:10A930001B780133DAB2084B1A70FEF731FB064B75
:10A940001B78632B06D9044B00221A70034B1800A6
:10A9500000F006F8C04610BD300400203C04002082
:10A9600082B00190019B02331A78019B02330132BD
:10A97000D2B21A70019B02331B783B2B21D9019B69
:10A98000023300221A70019B01331A78019B0133B4
:10A990000132D2B21A70019B01331B783B2B10D9C4
:10A9A000019B013300221A70019B1B780133DAB23C
:10A9B000019B1A70019B1B78172B02D9019B002267
:10A9C0001A70C04602B0704700B583B002006B46F3
:10A9D00007331A706B4607331B7819000220FEF705
:10A9E000F9FEC04603B000BD00B585B003900291EA
:10A9F0000192019B1B68012B02D0022B07D011E0B2
:10AA0000019B5B68039A52B2100098470AE0019BD1
:10AA10009B68039A52B21A70019B9B685A1C019B57
:10AA20009A60C046029B1B685A1C029B1A60C04673
:10AA300005B000BD30B5A7B003900291019217ABED
:10AA4000180014231A00002100F0A4FD04AB180024
:10AA50004C231A00002100F09DFD002325930023C4
:10AA6000002420932194039B5C681B68180021003C
:10AA7000FCF7EEFA03002593039B1C685D6825989C
:10AA8000FDF7DCFA02000B0020002900FCF758FF5C
:10AA900003000C001E931F94019B002B28D1039BE5
:10AAA0001C685D682598FDF7C9FA02000B002000BC
:10AAB0002900FCF745FF03000C0018002100784A2C
:10AAC000784BFCF7CBFC03000C0018002100FCF7CE
:10AAD000DDFA03000C002093219416E00022724B53
:10AAE0001E981F99FCF7BAFC03000C001E931F94DC
:10AAF000019B5A1E0192002BF0D11E981F99FCF762
:10AB0000C5FA03000C0020932194039B1C685D6828
:10AB10002598FDF793FA02000B0020002900FCF7AE
:10AB20000FFF03000C001C931D94002322930CE0E4
:10AB300000225D4B1C981D99FCF790FC03000C0053
:10AB40001C931D94229B013322930022574B1C9887
:10AB50001D99FCF735FA031EEAD1229B013B229393
:10AB600000232493259B002B07D1249B5A1C24925D
:10AB7000029AD31830221A702FE00023239313E097
:10AB8000239C631C2393259B0A211800FCF712F9D0
:10AB90000B00190017ABA200D150259B0A21180009
:10ABA000FCF782F803002593259B002BE8D111E0E8
:10ABB000239B5A1E17AB9200D358DBB23033D9B265
:10ABC000249B5A1C2492029AD3184AB21A70239BCF
:10ABD000013B2393239B002BEAD1249B5A1C2492F4
:10ABE000029AD3182E221A70209B219A134307D160
:10ABF000249B5A1C2492029AD31830221A7045E0E2
:10AC0000002323931AE0209821990A220023FCF7BD
:10AC1000FFF91C00130018002100239B5A1C2392EB
:10AC2000010004AA9B009950209821990A22002330
:10AC3000FCF7EEF903000C0020932194209B219A4D
:10AC40001343E0D109E0239B5A1C239204AA9B00E2
:10AC500000219950229B013B2293229B002BF2D191
:10AC600011E0239B5A1E04AB9200D358DBB2303361
:10AC7000D9B2249B5A1C2492029AD3184AB21A7051
:10AC8000239B013B2393239B002BEAD1029A249B15
:10AC9000D31800221A70249B180027B030BDC0467C
:10ACA00000A0D88557347643000024400000F03FD0
:10ACB00000B58DB003900291019200930023079399
:10ACC000039B0693069B5A1C069200221A70019B56
:10ACD000002B32D0029B1B680B930B9B002B28D1BF
:10ACE000069B30221A70079B0133079358E00099A6
:10ACF0000B98FCF763F803000493049B009A5343FA
:10AD00000B9AD31A0A930A9B002B04DA0A9B30226F
:10AD1000D31A0A9302E00A9B30330A93049B0B93E5
:10AD2000069B5A1C06920A9A52B21A70079B01336C
:10AD300007930B9B002BDAD132E0029B1B6809932F
:10AD4000099B002B28D1069B30221A70079B0133E8
:10AD5000079325E0009B19000998FBF7A5FF030066
:10AD60000593009B059A5343099AD31A0893089BAD
:10AD7000092B03D8089B3033089302E0089B373334
:10AD80000893059B0993069B5A1C0692089A52B297
:10AD90001A70079B01330793099B002BDAD1C04639
:10ADA000079B18000DB000BD00B587B0039002915D
:10ADB00001920093039B059308E0009A019B190000
:10ADC0003020FFF711FE059B01330593059A029B86
:10ADD0009A42F2DBC04607B000BD00B587B00390D1
:10ADE000029101920093039B059308E0009A019B56
:10ADF00019002020FFF7F8FD059B01330593059A04
:10AE0000029B9A42F2DBC04607B000BD10B5A6B067
:10AE10000390029101920BAB180021231A0000212C
:10AE200000F0B8FB0BAB30221A7000230A9300230A
:10AE30001F9301231E93029B259300F081FB199B16
:10AE4000252B18D0199B0A2B07D0039A0AA9199B06
:10AE50001800FFF7C9FD00F070FB039A0AAB190058
:10AE60000D20FFF7C1FD039A0AAB19000A20FFF776
:10AE7000BBFD00F062FB00232193002322932CE012
:10AE8000259B01332593259B1B785BB2203B102B20
:10AE90001DD89A00C94BD3181B689F46219B0122DD
:10AEA0001343219319E0219B02221343219314E0C1
:10AEB000219B0422134321930FE0219B082213437B
:10AEC00021930AE0219B10221343219305E0259B47
:10AED000013B259301232293C046229B002BCFD018
:10AEE00000232093002322931BE0259B013325930D
:10AEF000259B1B785BB21993199B303B092B0AD811
:10AF0000209A13009B009B185B001A00199B303B92
:10AF1000D318209305E0259B013B25930123229321
:10AF2000C046229B002BE0D0259B01332593259B17
:10AF30001B785BB22E2B24D100231D930023229378
:10AF40001BE0259B01332593259B1B785BB219934E
:10AF5000199B303B092B0AD81D9A13009B009B18A4
:10AF60005B001A00199B303BD3181D9305E0259B0D
:10AF7000013B259301232293C046229B002BE0D066
:10AF800006E0259B013B259300231E9300231D9380
:10AF9000259B01332593259B1B785BB2682B12D030
:10AFA0006C2B02D04C2B05D009E01F9B01221343D0
:10AFB0001F9309E01F9B022213431F9304E0259B6C
:10AFC000013B259300E0C046259B01332593259B3B
:10AFD0001B785BB21993199B583B202B00D9A0E238
:10AFE0009A00774BD3181B689F46019B043301934B
:10AFF000019B043B1B68099309A90BA80A230122A2
:10B00000FFF756FE030023930BAA239BD318249328
:10B01000099B002B05DA2D231C93239B01332393DB
:10B0200015E0219B0222134005D02B231C93239B68
:10B03000013323930BE0219B0422134005D02023EE
:10B040001C93239B0133239301E000231C930023D3
:10B050001B93219B0822134013D01C9B002B05D06F
:10B06000039A0AA91C9B1800FFF7BEFC01231B933F
:10B07000039B0AAA20992398FFF796FE209B23930F
:10B0800014E0219B0122134010D1039B0AAA2099AE
:10B090002398FFF7A2FE1C9B002B05D0039A0AA958
:10B0A0001C9B1800FFF7A0FC01231B931B9B002B8C
:10B0B00000D0AAE11C9B002B00D1A6E1039A0AA9AB
:10B0C0001C9B1800FFF790FC9FE11F9B002B1BD1DE
:10B0D000019B08330193019B083B5C681B68149338
:10B0E00015945F236B4414AAD2791A70149B15939C
:10B0F0000023149314AB5F226A441278DA70149B15
:10B10000159C0693079411E01F9B012B02D01F9BF7
:10B11000022B0BD1019B04330193019B0833019354
:10B12000019B083B5C681B68069307941E9B002BE1
:10B130000AD01D9A0BA906AB1800FFF77BFC030091
:10B1400023930BAB249317E01F9B002B0AD10BA971
:10B1500006AB08221800FFF76DFC030023930BAB2E
:10B16000249309E01D9A0BA906AB1800FFF762FCB7
:10B17000030023930BAB2493069807990022002326
:10B18000FBF71EFF031E05D02D231C93239B0133C9
:10B19000239319E0219B0222134005D02B231C93FB
:10B1A000239B013323930FE0219B0422134009D0FA
:10B1B00020231C93239B0133239305E0D8BE00007A
:10B1C0001CBF000000231C9300231B93219B08221B
:10B1D000134013D01C9B002B05D0039A0AA91C9B7B
:10B1E0001800FFF701FC01231B93039B0AAA209977
:10B1F0002398FFF7D9FD209B239314E0219B012284
:10B20000134010D1039B0AAA20992398FFF7E5FD6C
:10B210001C9B002B05D0039A0AA91C9B1800FFF762
:10B22000E3FB01231B931B9B002B14D11C9B002BC6
:10B2300011D0039A0AA91C9B1800FFF7D5FB0AE05E
:10B24000249B5A1C24921B785BB21800039A0AAB09
:10B250001900FFF7C9FB249B1B785BB2002BEFD1D1
:10B26000219B0122134000D162E1039B0AAA20998D
:10B270002398FFF7B2FD5BE1019B04330193019B2F
:10B28000043B1B68059305A90BA810230022FFF7B8
:10B290000FFD030023930BAA239BD31824930023B1
:10B2A0001B93219B082213401AD0219B102213408C
:10B2B0000DD0039A0AAB19003020FFF795FB039AD3
:10B2C0000AAB19007820FFF78FFB01231B93039B28
:10B2D0000AAA20992398FFF767FD209B239322E079
:10B2E000219B012213401ED1219B1022134002D02A
:10B2F000239B02332393039B0AAA20992398FFF7E9
:10B300006CFD219B102213400DD0039A0AAB19004B
:10B310003020FFF769FB039A0AAB19007820FFF78A
:10B3200063FB01231B93219B102213406FD01B9BB7
:10B33000002B6CD1039A0AAB19003020FFF754FBA5
:10B34000039A0AAB19007820FFF74EFB239B0233C8
:10B3500023935CE0019B04330193019B043B1B6836
:10B36000059305A90BA808230022FFF7A1FC030001
:10B3700023932EE0019B04330193019B043B1B6844
:10B38000059305A90BA802230022FFF791FC0300F7
:10B3900023931EE0019B04330193019B043B1B6834
:10B3A000059305A90BA810230022FFF781FC0300D9
:10B3B00023930EE0019B04330193019B043B1B6824
:10B3C000059305A90BA80A230022FFF771FC0300CF
:10B3D00023930BAA239BD3182493219B0822134069
:10B3E00008D0039B0AAA20992398FFF7DDFC209B35
:10B3F00023931BE0219B012213400AD1039B0AAA3D
:10B4000020992398FFF7E9FC10E0C0460EE0C04603
:10B410000CE0C0460AE0249B5A1E24921B785BB2C3
:10B420001800039A0AAB1900FFF7DEFA249B1B7879
:10B430005BB2002BEFD1219B0122134000D179E0B8
:10B44000039B0AAA20992398FFF7C7FC72E0019B8F
:10B4500004330193019B043B1B685BB21693039A70
:10B460000AA9169B1800FFF7BFFA66E0019B043398
:10B470000193019B043B1B681A931A9B002B5BD022
:10B480001A9B1800FCF740FE03002393219B012226
:10B49000134005D1039B0AAA20992398FFF79DFC2E
:10B4A0001D9B002B22D010E01D9B002B0DDD1D9B52
:10B4B000013B1D931A9B5A1C1A921B785BB2180011
:10B4C000039A0AAB1900FFF78FFA1A9B1B785BB23D
:10B4D000002BE9D10FE01A9B5A1C1A921B785BB221
:10B4E0001800039A0AAB1900FFF77EFA1A9B1B7823
:10B4F0005BB2002BEFD1219B012213401CD0039B98
:10B500000AAA20992398FFF768FC15E0019B0433F1
:10B510000193019B043B1B6818930A9A189B1A60BD
:10B520000BE0039A0AA9199B1800FFF75DFA04E0E3
:10B53000C04602E0C04600E0C046259B013325938B
:10B54000259B1B785BB21993199B002B00D076E4E6
:10B550000A9B180026B010BD0FB400B587B001AB30
:10B5600001221A6001AB0A4A5A6009AB0593089997
:10B57000059A01AB1800FFF749FC03000493002370
:10B580000593049B180007B008BC04B01847C046D8
:10B59000C9A9000003001218934200D17047197026
:10B5A0000133F9E7002330B59A420AD0013AC45C6E
:10B5B000CD5CAC4204D1934202D00133002CF6D1D1
:10B5C000631B180030BD00005B41726520796F7508
:10B5D00020616E20656D756172743F3F5D000000F3
:10B5E0005B5965732C4920616D20616E20656D7516
:10B5F00061727421215D00004750494F2D4C454434
:10B60000000000005043206E6F7420636F6E6E6503
:10B6100063746564000000006C696768743A000038
:10B62000202020202020202020202020202020201A
:10B6300020000000726564002020202020202020AF
:10B64000202000007265642000000000BAECB5C63E
:10B650003AC1C10D0A000000626C7565000000006F
:10B66000C0B6B5C63AC1C10D0A0000006772656573
:10B670006E000000C2CCB5C63AC1C10D0A00000080
:10B680006379616E00000000C7E0B5C6A3A8C0B62C
:10B69000C2CCBACFB3C9A3A93AC1C10D0A000000F8
:10B6A00076696F6C65740000D7CFB5C6A3A8BAECF5
:10B6B000C0B6BACFB3C9A3A93AC1C10D0A000000F0
:10B6C00079656C6C6F770000BBC6B5C6A3A8BAECF1
:10B6D000C2CCBACFB3C9A3A93AC1C10D0A000000B8
:10B6E0007768697465000000B0D7B5C6A3A8BAEC46
:10B6F000C0B6C2CCBACFB3C9A3A93AC1C10D0A0022
:10B700006F6666006C69676874206F66660000008B
:10B71000B9D8B5C60D0A00002020A1BE5553455228
:10B72000CCE1CABEA1BFA3BABDF8C8EB5553455280
:10B73000B5C4D6F7B3CCD0F22E2E2E0D0A000000E1
:10B740004C4544004B4C33363F0000004920616DAE
:10B7500020616E204B4C333600000000202020205A
:10B7600020202020202020202020202020202020D9
:10B77000200000004B4C333620697320636F6E6EDF
:10B78000656374696E6700006F6B00004B4C333665
:10B7900020697320726561647900000014760000EE
:10B7A0001675000016750000347800001075000052
:10B7B000107500001C78000034780000107500003F
:10B7C0001C78000010750000347800002A78000012
:10B7D0002A7800002A7800003878000000900440A1
:10B7E00000A0044000B0044000C0044000D0044069
:10B7F00000F00F4040F00F4080F00F40C0F00F40CD
:10B8000000F10F4000B0064000C0064000000000FC
:10B810000000000000000000000000000000183CD4
:10B820003C3C1818180018180000000000666666F6
:10B8300024000000000000000000000000000036AE
:10B84000367F3636367F36360000000018183E63E5
:10B8500043033E6061633E181800000000000000D2
:10B86000436330180C0663610000000000001C36C2
:10B87000361C6E3B3333336E00000000000C0C0CA2
:10B88000060000000000000000000000000030186A
:10B890000C0C0C0C0C0C18300000000000000C18F4
:10B8A000303030303030180C000000000000000054
:10B8B00000663CFF3C660000000000000000000045
:10B8C0000018187E1818000000000000000000009A
:10B8D00000000000001818180C0000000000000014
:10B8E0000000007F000000000000000000000000D9
:10B8F0000000000000001818000000000000000018
:10B90000406030180C0603010000000000003E6398
:10B9100063736B6B6763633E000000000000181CDC
:10B920001E1818181818187E0000000000003E634A
:10B930006030180C0603637F0000000000003E63C7
:10B9400060603C606060633E0000000000003038D2
:10B950003C36337F303030780000000000007F0339
:10B9600003033F706060633E0000000000001C069F
:10B9700003033F636363633E0000000000007F63D6
:10B98000606030180C0C0C0C0000000000003E63DE
:10B9900063633E636363633E0000000000003E6338
:10B9A00063637E606060301E0000000000000000E5
:10B9B0001818000000181800000000000000000027
:10B9C000181800000018180C0000000000000060AB
:10B9D00030180C060C183060000000000000000059
:10B9E00000007F00007F0000000000000000000653
:10B9F0000C18306030180C060000000000003E6398
:10BA00006330181818001818000000000000003EED
:10BA100063637B7B7B3B033E000000000000081C4F
:10BA20003663637F636363630000000000003F666A
:10BA300066663E666666663F0000000000003C6683
:10BA4000430303030343663C0000000000001F366D
:10BA5000666666666666361F0000000000007F6648
:10BA600046161E160646667F0000000000007F6630
:10BA700046161E160606060F0000000000003C6673
:10BA80004303037B6363665C0000000000006363A4
:10BA900063637F63636363630000000000003C181E
:10BAA000181818181818183C00000000000078300A
:10BAB000303030303333331E000000000000676642
:10BAC00036361E1E366666670000000000000F0650
:10BAD000060606060646667F000000000000637743
:10BAE0007F7F6B6363636363000000000000636734
:10BAF0006F7F7B73636363630000000000001C368C
:10BB0000636363636363361C0000000000003F66EC
:10BB100066663E060606060F0000000000003E6353
:10BB200063636363636B7B3E3070000000003F66BD
:10BB300066663E36666666670000000000003E638B
:10BB400063061C306063633E0000000000007E7EE0
:10BB50005A1818181818183C0000000000006363F9
:10BB6000636363636363633E00000000000063631C
:10BB70006363636363361C080000000000006363B6
:10BB80006363636B6B7F3636000000000000636305
:10BB900036361C1C36366363000000000000666603
:10BBA00066663C181818183C0000000000007F630F
:10BBB0006130180C0643637F0000000000003C0C5D
:10BBC0000C0C0C0C0C0C0C3C0000000000000001E4
:10BBD00003070E1C387060400000000000003C307D
:10BBE000303030303030303C00000000081C36630C
:10BBF0000000000000000000000000000000000045
:10BC0000000000000000000000FF00000C0C180005
:10BC10000000000000000000000000000000000024
:10BC2000001E303E3333336E000000000000070674
:10BC3000061E36666666663B0000000000000000D7
:10BC4000003E63030303633E000000000000383041
:10BC5000303C36333333336E000000000000000008
:10BC6000003E637F0303633E0000000000001C36BB
:10BC700026060F060606060F000000000000000062
:10BC8000006E33333333333E30331E00000007067B
:10BC900006366E66666666670000000000001818CB
:10BCA000001C18181818183C000000000000606004
:10BCB000007060606060606066663C0000000706BF
:10BCC0000666361E1E3666670000000000001C185F
:10BCD000181818181818183C000000000000000080
:10BCE00000377F6B6B6B6B6B000000000000000087
:10BCF000003B6666666666660000000000000000A5
:10BD0000003E63636363633E0000000000000000C8
:10BD1000003B66666666663E06060F000000000091
:10BD2000006E33333333333E303078000000000090
:10BD3000003B6E460606060F0000000000000000F3
:10BD4000003E63061C30633E000000000000080C4B
:10BD50000C3F0C0C0C0C6C380000000000000000C4
:10BD6000003333333333336E000000000000000033
:10BD70000066666666663C18000000000000000071
:10BD8000006363636B6B7F360000000000000000FF
:10BD90000063361C1C1C366300000000000000001D
:10BDA000006363636363637E60301F000000000014
:10BDB000007F33180C06637F00000000000070183D
:10BDC00018180E1818181870000000000000181835
:10BDD00018180018181818180000000000000E1895
:10BDE000181870181818180E0000000000006E3B9C
:10BDF0000000000000000000000000000000000043
:10BE0000081C366363637F0000000000BDF0800003
:10BE10008000400120021004080AF477832080008B
:10BE2000F80F800088089004A012FE3F0000BAF9C5
:10BE300020022022FF7F2002103E9022FE23103E8F
:10BE40005022FC22443E442244227C224429801079
:10BE5000C2AB10041024FF7F10048010FC3F0410BC
:10BE60000410FC1F0410040004000400020002007F
:10BE70000100D1CFFC3F400248125012500A40024C
:10BE8000F83F080008000800080004000400020051
:10BE900000000000D0C510011002E83F0800CC1FD0
:10BEA0000A00C81F0800C81F481048104810C81FC3
:10BEB000481000000000D2E54008880888081004F7
:10BEC00010042002200240018000400120021004E2
:10BED0000808063000000000B0AE0000CEAE000042
:10BEE000CEAE0000C4AE0000CEAE0000CEAE00006C
:10BEF000CEAE0000CEAE0000CEAE0000CEAE000052
:10BF0000CEAE0000A6AE0000CEAE00009CAE00009B
:10BF1000CEAE0000CEAE0000BAAE000078B2000097
:10BF200022B5000022B5000022B5000022B50000B5
:10BF300022B5000022B5000022B5000022B50000A5
:10BF400022B5000074B300004EB40000EAAF000058
:10BF500022B50000CAB0000022B5000022B50000E2
:10BF6000EAAF000022B5000022B5000022B50000B3
:10BF700022B500000CB5000054B3000094B30000DB
:10BF800022B5000022B500006CB4000022B500000C
:10BF9000B4B3000022B5000022B5000078B2000062
:10BFA000F8B5C046F8BC08BC9E467047F8B5C04618
:08BFB000F8BC08BC9E46704776
:08BFB80010B1FF7F0100000041
:04BFC000396C0000D8
:04BFC400116C0000FC
:10BFC800A5060000B6070200006CDC020C0D0E008E
:0400000300006C5934
:00000001FF
